{
  "_format": "hh-sol-artifact-1",
  "contractName": "gruppo",
  "sourceName": "contracts/gruppo.sol",
  "abi": [
    {
      "inputs": [
        {
          "internalType": "address",
          "name": "_utenteProgettoAddress",
          "type": "address"
        },
        {
          "internalType": "address",
          "name": "_purpleCoinAddress",
          "type": "address"
        }
      ],
      "stateMutability": "nonpayable",
      "type": "constructor"
    },
    {
      "anonymous": false,
      "inputs": [
        {
          "indexed": true,
          "internalType": "address",
          "name": "_address",
          "type": "address"
        }
      ],
      "name": "AddressAdded",
      "type": "event"
    },
    {
      "inputs": [
        {
          "internalType": "uint256",
          "name": "_id_post",
          "type": "uint256"
        }
      ],
      "name": "addLike",
      "outputs": [],
      "stateMutability": "nonpayable",
      "type": "function"
    },
    {
      "inputs": [
        {
          "internalType": "uint256",
          "name": "_id_gruppo",
          "type": "uint256"
        },
        {
          "internalType": "string",
          "name": "_titolo",
          "type": "string"
        },
        {
          "internalType": "string",
          "name": "_descrizione",
          "type": "string"
        }
      ],
      "name": "createPost",
      "outputs": [],
      "stateMutability": "nonpayable",
      "type": "function"
    },
    {
      "inputs": [
        {
          "internalType": "uint256",
          "name": "_id_post",
          "type": "uint256"
        },
        {
          "internalType": "string",
          "name": "_descrizione",
          "type": "string"
        }
      ],
      "name": "create_commento",
      "outputs": [],
      "stateMutability": "nonpayable",
      "type": "function"
    },
    {
      "inputs": [],
      "name": "getAllPosts",
      "outputs": [
        {
          "components": [
            {
              "internalType": "uint256",
              "name": "id_gruppo_post",
              "type": "uint256"
            },
            {
              "internalType": "uint256",
              "name": "id_post",
              "type": "uint256"
            },
            {
              "internalType": "string",
              "name": "titolo",
              "type": "string"
            },
            {
              "internalType": "string",
              "name": "descrizione",
              "type": "string"
            },
            {
              "internalType": "uint256",
              "name": "n_like",
              "type": "uint256"
            },
            {
              "internalType": "address",
              "name": "account",
              "type": "address"
            },
            {
              "internalType": "bool",
              "name": "rewarded",
              "type": "bool"
            }
          ],
          "internalType": "struct gruppo.Post[]",
          "name": "",
          "type": "tuple[]"
        }
      ],
      "stateMutability": "view",
      "type": "function"
    },
    {
      "inputs": [
        {
          "internalType": "uint256",
          "name": "_id",
          "type": "uint256"
        }
      ],
      "name": "getGruppId",
      "outputs": [
        {
          "components": [
            {
              "internalType": "uint256",
              "name": "id_gruppo",
              "type": "uint256"
            },
            {
              "internalType": "string",
              "name": "nick_group",
              "type": "string"
            },
            {
              "internalType": "string",
              "name": "descrizione",
              "type": "string"
            },
            {
              "internalType": "uint256",
              "name": "n_like",
              "type": "uint256"
            },
            {
              "internalType": "uint256",
              "name": "n_post",
              "type": "uint256"
            }
          ],
          "internalType": "struct gruppo.Gruppo",
          "name": "",
          "type": "tuple"
        }
      ],
      "stateMutability": "view",
      "type": "function"
    },
    {
      "inputs": [],
      "name": "getGruppi",
      "outputs": [
        {
          "components": [
            {
              "internalType": "uint256",
              "name": "id_gruppo",
              "type": "uint256"
            },
            {
              "internalType": "string",
              "name": "nick_group",
              "type": "string"
            },
            {
              "internalType": "string",
              "name": "descrizione",
              "type": "string"
            },
            {
              "internalType": "uint256",
              "name": "n_like",
              "type": "uint256"
            },
            {
              "internalType": "uint256",
              "name": "n_post",
              "type": "uint256"
            }
          ],
          "internalType": "struct gruppo.Gruppo[]",
          "name": "",
          "type": "tuple[]"
        }
      ],
      "stateMutability": "view",
      "type": "function"
    },
    {
      "inputs": [
        {
          "internalType": "uint256",
          "name": "_id_gruppo",
          "type": "uint256"
        }
      ],
      "name": "getLike",
      "outputs": [
        {
          "internalType": "uint256",
          "name": "",
          "type": "uint256"
        }
      ],
      "stateMutability": "view",
      "type": "function"
    },
    {
      "inputs": [
        {
          "internalType": "uint256",
          "name": "_id_gruppo",
          "type": "uint256"
        }
      ],
      "name": "getPost",
      "outputs": [
        {
          "components": [
            {
              "internalType": "uint256",
              "name": "id_gruppo_post",
              "type": "uint256"
            },
            {
              "internalType": "uint256",
              "name": "id_post",
              "type": "uint256"
            },
            {
              "internalType": "string",
              "name": "titolo",
              "type": "string"
            },
            {
              "internalType": "string",
              "name": "descrizione",
              "type": "string"
            },
            {
              "internalType": "uint256",
              "name": "n_like",
              "type": "uint256"
            },
            {
              "internalType": "address",
              "name": "account",
              "type": "address"
            },
            {
              "internalType": "bool",
              "name": "rewarded",
              "type": "bool"
            }
          ],
          "internalType": "struct gruppo.Post[]",
          "name": "",
          "type": "tuple[]"
        }
      ],
      "stateMutability": "view",
      "type": "function"
    },
    {
      "inputs": [],
      "name": "get_address_gruppo",
      "outputs": [
        {
          "internalType": "address[]",
          "name": "",
          "type": "address[]"
        }
      ],
      "stateMutability": "nonpayable",
      "type": "function"
    }
  ],
  "bytecode": "0x6080604052600080556000600155600060025534801561001e57600080fd5b5060405161384138038061384183398181016040528101906100409190610896565b81600760006101000a81548173ffffffffffffffffffffffffffffffffffffffff021916908373ffffffffffffffffffffffffffffffffffffffff16021790555080600860006101000a81548173ffffffffffffffffffffffffffffffffffffffff021916908373ffffffffffffffffffffffffffffffffffffffff1602179055506100d06104ed60201b60201c565b61012d6040518060400160405280600581526020017f53706f727400000000000000000000000000000000000000000000000000000081525060405180606001604052806027815260200161381a602791396106d060201b60201c565b61018a6040518060400160405280600e81526020017f50726f6772616d6d617a696f6e65000000000000000000000000000000000000815250604051806060016040528060278152602001613757602791396106d060201b60201c565b6101e76040518060400160405280600681526020017f4d757369636100000000000000000000000000000000000000000000000000008152506040518060600160405280602281526020016137a9602291396106d060201b60201c565b6102616040518060400160405280600681526020017f437563696e6100000000000000000000000000000000000000000000000000008152506040518060400160405280601a81526020017f52696365747465206520747275636368692063756c696e6172690000000000008152506106d060201b60201c565b6102be6040518060400160405280600681526020017f56696167676900000000000000000000000000000000000000000000000000008152506040518060600160405280602281526020016137f8602291396106d060201b60201c565b6103386040518060400160405280600681526020017f43696e656d6100000000000000000000000000000000000000000000000000008152506040518060400160405280601b81526020017f46696c6d2c207365726965205456206520726563656e73696f6e6900000000008152506106d060201b60201c565b6103956040518060400160405280600581526020017f4c696272690000000000000000000000000000000000000000000000000000008152506040518060600160405280602d81526020016137cb602d91396106d060201b60201c565b61040f6040518060400160405280600b81526020017f566964656f67696f6368690000000000000000000000000000000000000000008152506040518060400160405280602081526020017f547574746f2073756920766964656f67616d6573206520696c2067616d696e678152506106d060201b60201c565b61046c6040518060400160405280600781526020017f4669746e657373000000000000000000000000000000000000000000000000008152506040518060600160405280602b815260200161377e602b91396106d060201b60201c565b6104e66040518060400160405280600a81526020017f5465636e6f6c6f676961000000000000000000000000000000000000000000008152506040518060400160405280601b81526020017f556c74696d65206e6f76697461272065207472656e64207465636800000000008152506106d060201b60201c565b5050610e11565b600760009054906101000a900473ffffffffffffffffffffffffffffffffffffffff1673ffffffffffffffffffffffffffffffffffffffff16630131222f6040518163ffffffff1660e01b8152600401600060405180830381865afa15801561055a573d6000803e3d6000fd5b505050506040513d6000823e3d601f19601f820116820180604052508101906105839190610a2f565b600a908051906020019061059892919061077d565b5060005b600a805490508110156106cd57600160096000600a84815481106105c3576105c2610a78565b5b9060005260206000200160009054906101000a900473ffffffffffffffffffffffffffffffffffffffff1673ffffffffffffffffffffffffffffffffffffffff1673ffffffffffffffffffffffffffffffffffffffff16815260200190815260200160002060006101000a81548160ff021916908315150217905550600a818154811061065357610652610a78565b5b9060005260206000200160009054906101000a900473ffffffffffffffffffffffffffffffffffffffff1673ffffffffffffffffffffffffffffffffffffffff167fa226db3f664042183ee0281230bba26cbf7b5057e50aee7f25a175ff45ce4d7f60405160405180910390a2808060010191505061059c565b50565b60006040518060a00160405280600054815260200184815260200183815260200160008152602001600081525090508060036000805481526020019081526020016000206000820151816000015560208201518160010190816107339190610cc8565b5060408201518160020190816107499190610cc8565b50606082015181600301556080820151816004015590505060008081548092919061077390610dc9565b9190505550505050565b8280548282559060005260206000209081019282156107f6579160200282015b828111156107f55782518260006101000a81548173ffffffffffffffffffffffffffffffffffffffff021916908373ffffffffffffffffffffffffffffffffffffffff1602179055509160200191906001019061079d565b5b5090506108039190610807565b5090565b5b80821115610820576000816000905550600101610808565b5090565b6000604051905090565b600080fd5b600080fd5b600073ffffffffffffffffffffffffffffffffffffffff82169050919050565b600061086382610838565b9050919050565b61087381610858565b811461087e57600080fd5b50565b6000815190506108908161086a565b92915050565b600080604083850312156108ad576108ac61082e565b5b60006108bb85828601610881565b92505060206108cc85828601610881565b9150509250929050565b600080fd5b6000601f19601f8301169050919050565b7f4e487b7100000000000000000000000000000000000000000000000000000000600052604160045260246000fd5b610924826108db565b810181811067ffffffffffffffff82111715610943576109426108ec565b5b80604052505050565b6000610956610824565b9050610962828261091b565b919050565b600067ffffffffffffffff821115610982576109816108ec565b5b602082029050602081019050919050565b600080fd5b60006109ab6109a684610967565b61094c565b905080838252602082019050602084028301858111156109ce576109cd610993565b5b835b818110156109f757806109e38882610881565b8452602084019350506020810190506109d0565b5050509392505050565b600082601f830112610a1657610a156108d6565b5b8151610a26848260208601610998565b91505092915050565b600060208284031215610a4557610a4461082e565b5b600082015167ffffffffffffffff811115610a6357610a62610833565b5b610a6f84828501610a01565b91505092915050565b7f4e487b7100000000000000000000000000000000000000000000000000000000600052603260045260246000fd5b600081519050919050565b7f4e487b7100000000000000000000000000000000000000000000000000000000600052602260045260246000fd5b60006002820490506001821680610af957607f821691505b602082108103610b0c57610b0b610ab2565b5b50919050565b60008190508160005260206000209050919050565b60006020601f8301049050919050565b600082821b905092915050565b600060088302610b747fffffffffffffffffffffffffffffffffffffffffffffffffffffffffffffffff82610b37565b610b7e8683610b37565b95508019841693508086168417925050509392505050565b6000819050919050565b6000819050919050565b6000610bc5610bc0610bbb84610b96565b610ba0565b610b96565b9050919050565b6000819050919050565b610bdf83610baa565b610bf3610beb82610bcc565b848454610b44565b825550505050565b600090565b610c08610bfb565b610c13818484610bd6565b505050565b5b81811015610c3757610c2c600082610c00565b600181019050610c19565b5050565b601f821115610c7c57610c4d81610b12565b610c5684610b27565b81016020851015610c65578190505b610c79610c7185610b27565b830182610c18565b50505b505050565b600082821c905092915050565b6000610c9f60001984600802610c81565b1980831691505092915050565b6000610cb88383610c8e565b9150826002028217905092915050565b610cd182610aa7565b67ffffffffffffffff811115610cea57610ce96108ec565b5b610cf48254610ae1565b610cff828285610c3b565b600060209050601f831160018114610d325760008415610d20578287015190505b610d2a8582610cac565b865550610d92565b601f198416610d4086610b12565b60005b82811015610d6857848901518255600182019150602085019450602081019050610d43565b86831015610d855784890151610d81601f891682610c8e565b8355505b6001600288020188555050505b505050505050565b7f4e487b7100000000000000000000000000000000000000000000000000000000600052601160045260246000fd5b6000610dd482610b96565b91507fffffffffffffffffffffffffffffffffffffffffffffffffffffffffffffffff8203610e0657610e05610d9a565b5b600182019050919050565b61293780610e206000396000f3fe608060405234801561001057600080fd5b50600436106100935760003560e01c8063378a35cd11610066578063378a35cd146101205780633db8c1021461013c57806340731c241461015a5780634e9b47391461018a578063f135fbd5146101a657610093565b80630e9c35b3146100985780630eb5ad72146100b45780632d742717146100d25780633056110014610102575b600080fd5b6100b260048036038101906100ad919061190f565b6101d6565b005b6100bc610390565b6040516100c99190611a5b565b60405180910390f35b6100ec60048036038101906100e79190611a7d565b610426565b6040516100f99190611ab9565b60405180910390f35b61010a610525565b6040516101179190611ce2565b60405180910390f35b61013a60048036038101906101359190611a7d565b610792565b005b610144610b67565b6040516101519190611e43565b60405180910390f35b610174600480360381019061016f9190611a7d565b610d62565b6040516101819190611ce2565b60405180910390f35b6101a4600480360381019061019f9190611e65565b611099565b005b6101c060048036038101906101bb9190611a7d565b611302565b6040516101cd9190611f6d565b60405180910390f35b600960003373ffffffffffffffffffffffffffffffffffffffff1673ffffffffffffffffffffffffffffffffffffffff16815260200190815260200160002060009054906101000a900460ff16610262576040517f08c379a000000000000000000000000000000000000000000000000000000000815260040161025990611fec565b60405180910390fd5b816000811015801561027657506001548111155b6102b5576040517f08c379a00000000000000000000000000000000000000000000000000000000081526004016102ac90612058565b60405180910390fd5b6102bd611471565b600060405180606001604052808581526020018481526020013373ffffffffffffffffffffffffffffffffffffffff168152509050806005600060025481526020019081526020016000206000820151816000015560208201518160010190816103279190612284565b5060408201518160020160006101000a81548173ffffffffffffffffffffffffffffffffffffffff021916908373ffffffffffffffffffffffffffffffffffffffff1602179055509050506002600081548092919061038590612385565b919050555050505050565b606061039a611471565b600a80548060200260200160405190810160405280929190818152602001828054801561041c57602002820191906000526020600020905b8160009054906101000a900473ffffffffffffffffffffffffffffffffffffffff1673ffffffffffffffffffffffffffffffffffffffff16815260200190600101908083116103d2575b5050505050905090565b6000600960003373ffffffffffffffffffffffffffffffffffffffff1673ffffffffffffffffffffffffffffffffffffffff16815260200190815260200160002060009054906101000a900460ff166104b4576040517f08c379a00000000000000000000000000000000000000000000000000000000081526004016104ab90611fec565b60405180910390fd5b81600981111580156104c7575060008110155b610506576040517f08c379a00000000000000000000000000000000000000000000000000000000081526004016104fd90612419565b60405180910390fd5b6003600084815260200190815260200160002060030154915050919050565b6060600060015467ffffffffffffffff811115610545576105446117e4565b5b60405190808252806020026020018201604052801561057e57816020015b61056b611654565b8152602001906001900390816105635790505b50905060005b60015481101561078a57600460008281526020019081526020016000206040518060e001604052908160008201548152602001600182015481526020016002820180546105d0906120a7565b80601f01602080910402602001604051908101604052809291908181526020018280546105fc906120a7565b80156106495780601f1061061e57610100808354040283529160200191610649565b820191906000526020600020905b81548152906001019060200180831161062c57829003601f168201915b50505050508152602001600382018054610662906120a7565b80601f016020809104026020016040519081016040528092919081815260200182805461068e906120a7565b80156106db5780601f106106b0576101008083540402835291602001916106db565b820191906000526020600020905b8154815290600101906020018083116106be57829003601f168201915b50505050508152602001600482015481526020016005820160009054906101000a900473ffffffffffffffffffffffffffffffffffffffff1673ffffffffffffffffffffffffffffffffffffffff1673ffffffffffffffffffffffffffffffffffffffff1681526020016005820160149054906101000a900460ff16151515158152505082828151811061077257610771612439565b5b60200260200101819052508080600101915050610584565b508091505090565b600960003373ffffffffffffffffffffffffffffffffffffffff1673ffffffffffffffffffffffffffffffffffffffff16815260200190815260200160002060009054906101000a900460ff1661081e576040517f08c379a000000000000000000000000000000000000000000000000000000000815260040161081590611fec565b60405180910390fd5b600660003373ffffffffffffffffffffffffffffffffffffffff1673ffffffffffffffffffffffffffffffffffffffff16815260200190815260200160002060009054906101000a900460ff16156108ab576040517f08c379a00000000000000000000000000000000000000000000000000000000081526004016108a2906124b4565b60405180910390fd5b80600081101580156108bf57506001548111155b6108fe576040517f08c379a00000000000000000000000000000000000000000000000000000000081526004016108f590612058565b60405180910390fd5b610906611471565b60046000838152602001908152602001600020600401600081548092919061092d90612385565b919050555060006004600084815260200190815260200160002060000154905060036000828152602001908152602001600020600301600081548092919061097490612385565b9190505550600360046000858152602001908152602001600020600401541480156109c057506004600084815260200190815260200160002060050160149054906101000a900460ff16155b15610b6257600860009054906101000a900473ffffffffffffffffffffffffffffffffffffffff1673ffffffffffffffffffffffffffffffffffffffff166340c10f196004600086815260200190815260200160002060050160009054906101000a900473ffffffffffffffffffffffffffffffffffffffff16600860009054906101000a900473ffffffffffffffffffffffffffffffffffffffff1673ffffffffffffffffffffffffffffffffffffffff1663313ce5676040518163ffffffff1660e01b8152600401602060405180830381865afa158015610aa7573d6000803e3d6000fd5b505050506040513d601f19601f82011682018060405250810190610acb919061250d565b600a610ad7919061266d565b6005610ae391906126b8565b6040518363ffffffff1660e01b8152600401610b00929190612709565b600060405180830381600087803b158015610b1a57600080fd5b505af1158015610b2e573d6000803e3d6000fd5b5050505060016004600085815260200190815260200160002060050160146101000a81548160ff0219169083151502179055505b505050565b60606000805467ffffffffffffffff811115610b8657610b856117e4565b5b604051908082528060200260200182016040528015610bbf57816020015b610bac6116a9565b815260200190600190039081610ba45790505b50905060005b600054811015610d5a57600360008281526020019081526020016000206040518060a001604052908160008201548152602001600182018054610c07906120a7565b80601f0160208091040260200160405190810160405280929190818152602001828054610c33906120a7565b8015610c805780601f10610c5557610100808354040283529160200191610c80565b820191906000526020600020905b815481529060010190602001808311610c6357829003601f168201915b50505050508152602001600282018054610c99906120a7565b80601f0160208091040260200160405190810160405280929190818152602001828054610cc5906120a7565b8015610d125780601f10610ce757610100808354040283529160200191610d12565b820191906000526020600020905b815481529060010190602001808311610cf557829003601f168201915b5050505050815260200160038201548152602001600482015481525050828281518110610d4257610d41612439565b5b60200260200101819052508080600101915050610bc5565b508091505090565b60608160098111158015610d77575060008110155b610db6576040517f08c379a0000000000000000000000000000000000000000000000000000000008152600401610dad90612419565b60405180910390fd5b6000805b600154811015610dfd5784600460008381526020019081526020016000206000015403610df0578180610dec90612385565b9250505b8080600101915050610dba565b5060008167ffffffffffffffff811115610e1a57610e196117e4565b5b604051908082528060200260200182016040528015610e5357816020015b610e40611654565b815260200190600190039081610e385790505b5090506000805b60015481101561108c578660046000838152602001908152602001600020600001540361107f57600460008281526020019081526020016000206040518060e00160405290816000820154815260200160018201548152602001600282018054610ec3906120a7565b80601f0160208091040260200160405190810160405280929190818152602001828054610eef906120a7565b8015610f3c5780601f10610f1157610100808354040283529160200191610f3c565b820191906000526020600020905b815481529060010190602001808311610f1f57829003601f168201915b50505050508152602001600382018054610f55906120a7565b80601f0160208091040260200160405190810160405280929190818152602001828054610f81906120a7565b8015610fce5780601f10610fa357610100808354040283529160200191610fce565b820191906000526020600020905b815481529060010190602001808311610fb157829003601f168201915b50505050508152602001600482015481526020016005820160009054906101000a900473ffffffffffffffffffffffffffffffffffffffff1673ffffffffffffffffffffffffffffffffffffffff1673ffffffffffffffffffffffffffffffffffffffff1681526020016005820160149054906101000a900460ff16151515158152505083838151811061106557611064612439565b5b6020026020010181905250818061107b90612385565b9250505b8080600101915050610e5a565b5081945050505050919050565b6110a1611471565b600960003373ffffffffffffffffffffffffffffffffffffffff1673ffffffffffffffffffffffffffffffffffffffff16815260200190815260200160002060009054906101000a900460ff1661112d576040517f08c379a000000000000000000000000000000000000000000000000000000000815260040161112490611fec565b60405180910390fd5b8260098111158015611140575060008110155b61117f576040517f08c379a000000000000000000000000000000000000000000000000000000000815260040161117690612419565b60405180910390fd5b826041815111156111c5576040517f08c379a00000000000000000000000000000000000000000000000000000000081526004016111bc906127a4565b60405180910390fd5b60006040518060e001604052808781526020016001548152602001868152602001858152602001600081526020013373ffffffffffffffffffffffffffffffffffffffff16815260200160001515815250905080600460006001548152602001908152602001600020600082015181600001556020820151816001015560408201518160020190816112579190612284565b50606082015181600301908161126d9190612284565b506080820151816004015560a08201518160050160006101000a81548173ffffffffffffffffffffffffffffffffffffffff021916908373ffffffffffffffffffffffffffffffffffffffff16021790555060c08201518160050160146101000a81548160ff021916908315150217905550905050600160008154809291906112f590612385565b9190505550505050505050565b61130a6116a9565b600360008381526020019081526020016000206040518060a001604052908160008201548152602001600182018054611342906120a7565b80601f016020809104026020016040519081016040528092919081815260200182805461136e906120a7565b80156113bb5780601f10611390576101008083540402835291602001916113bb565b820191906000526020600020905b81548152906001019060200180831161139e57829003601f168201915b505050505081526020016002820180546113d4906120a7565b80601f0160208091040260200160405190810160405280929190818152602001828054611400906120a7565b801561144d5780601f106114225761010080835404028352916020019161144d565b820191906000526020600020905b81548152906001019060200180831161143057829003601f168201915b50505050508152602001600382015481526020016004820154815250509050919050565b600760009054906101000a900473ffffffffffffffffffffffffffffffffffffffff1673ffffffffffffffffffffffffffffffffffffffff16630131222f6040518163ffffffff1660e01b8152600401600060405180830381865afa1580156114de573d6000803e3d6000fd5b505050506040513d6000823e3d601f19601f8201168201806040525081019061150791906128b8565b600a908051906020019061151c9291906116d8565b5060005b600a8054905081101561165157600160096000600a848154811061154757611546612439565b5b9060005260206000200160009054906101000a900473ffffffffffffffffffffffffffffffffffffffff1673ffffffffffffffffffffffffffffffffffffffff1673ffffffffffffffffffffffffffffffffffffffff16815260200190815260200160002060006101000a81548160ff021916908315150217905550600a81815481106115d7576115d6612439565b5b9060005260206000200160009054906101000a900473ffffffffffffffffffffffffffffffffffffffff1673ffffffffffffffffffffffffffffffffffffffff167fa226db3f664042183ee0281230bba26cbf7b5057e50aee7f25a175ff45ce4d7f60405160405180910390a28080600101915050611520565b50565b6040518060e001604052806000815260200160008152602001606081526020016060815260200160008152602001600073ffffffffffffffffffffffffffffffffffffffff1681526020016000151581525090565b6040518060a0016040528060008152602001606081526020016060815260200160008152602001600081525090565b828054828255906000526020600020908101928215611751579160200282015b828111156117505782518260006101000a81548173ffffffffffffffffffffffffffffffffffffffff021916908373ffffffffffffffffffffffffffffffffffffffff160217905550916020019190600101906116f8565b5b50905061175e9190611762565b5090565b5b8082111561177b576000816000905550600101611763565b5090565b6000604051905090565b600080fd5b600080fd5b6000819050919050565b6117a681611793565b81146117b157600080fd5b50565b6000813590506117c38161179d565b92915050565b600080fd5b600080fd5b6000601f19601f8301169050919050565b7f4e487b7100000000000000000000000000000000000000000000000000000000600052604160045260246000fd5b61181c826117d3565b810181811067ffffffffffffffff8211171561183b5761183a6117e4565b5b80604052505050565b600061184e61177f565b905061185a8282611813565b919050565b600067ffffffffffffffff82111561187a576118796117e4565b5b611883826117d3565b9050602081019050919050565b82818337600083830152505050565b60006118b26118ad8461185f565b611844565b9050828152602081018484840111156118ce576118cd6117ce565b5b6118d9848285611890565b509392505050565b600082601f8301126118f6576118f56117c9565b5b813561190684826020860161189f565b91505092915050565b6000806040838503121561192657611925611789565b5b6000611934858286016117b4565b925050602083013567ffffffffffffffff8111156119555761195461178e565b5b611961858286016118e1565b9150509250929050565b600081519050919050565b600082825260208201905092915050565b6000819050602082019050919050565b600073ffffffffffffffffffffffffffffffffffffffff82169050919050565b60006119c282611997565b9050919050565b6119d2816119b7565b82525050565b60006119e483836119c9565b60208301905092915050565b6000602082019050919050565b6000611a088261196b565b611a128185611976565b9350611a1d83611987565b8060005b83811015611a4e578151611a3588826119d8565b9750611a40836119f0565b925050600181019050611a21565b5085935050505092915050565b60006020820190508181036000830152611a7581846119fd565b905092915050565b600060208284031215611a9357611a92611789565b5b6000611aa1848285016117b4565b91505092915050565b611ab381611793565b82525050565b6000602082019050611ace6000830184611aaa565b92915050565b600081519050919050565b600082825260208201905092915050565b6000819050602082019050919050565b611b0981611793565b82525050565b600081519050919050565b600082825260208201905092915050565b60005b83811015611b49578082015181840152602081019050611b2e565b60008484015250505050565b6000611b6082611b0f565b611b6a8185611b1a565b9350611b7a818560208601611b2b565b611b83816117d3565b840191505092915050565b60008115159050919050565b611ba381611b8e565b82525050565b600060e083016000830151611bc16000860182611b00565b506020830151611bd46020860182611b00565b5060408301518482036040860152611bec8282611b55565b91505060608301518482036060860152611c068282611b55565b9150506080830151611c1b6080860182611b00565b5060a0830151611c2e60a08601826119c9565b5060c0830151611c4160c0860182611b9a565b508091505092915050565b6000611c588383611ba9565b905092915050565b6000602082019050919050565b6000611c7882611ad4565b611c828185611adf565b935083602082028501611c9485611af0565b8060005b85811015611cd05784840389528151611cb18582611c4c565b9450611cbc83611c60565b925060208a01995050600181019050611c98565b50829750879550505050505092915050565b60006020820190508181036000830152611cfc8184611c6d565b905092915050565b600081519050919050565b600082825260208201905092915050565b6000819050602082019050919050565b600060a083016000830151611d486000860182611b00565b5060208301518482036020860152611d608282611b55565b91505060408301518482036040860152611d7a8282611b55565b9150506060830151611d8f6060860182611b00565b506080830151611da26080860182611b00565b508091505092915050565b6000611db98383611d30565b905092915050565b6000602082019050919050565b6000611dd982611d04565b611de38185611d0f565b935083602082028501611df585611d20565b8060005b85811015611e315784840389528151611e128582611dad565b9450611e1d83611dc1565b925060208a01995050600181019050611df9565b50829750879550505050505092915050565b60006020820190508181036000830152611e5d8184611dce565b905092915050565b600080600060608486031215611e7e57611e7d611789565b5b6000611e8c868287016117b4565b935050602084013567ffffffffffffffff811115611ead57611eac61178e565b5b611eb9868287016118e1565b925050604084013567ffffffffffffffff811115611eda57611ed961178e565b5b611ee6868287016118e1565b9150509250925092565b600060a083016000830151611f086000860182611b00565b5060208301518482036020860152611f208282611b55565b91505060408301518482036040860152611f3a8282611b55565b9150506060830151611f4f6060860182611b00565b506080830151611f626080860182611b00565b508091505092915050565b60006020820190508181036000830152611f878184611ef0565b905092915050565b600082825260208201905092915050565b7f4163636f756e74206e6f6e207265676973747261746f00000000000000000000600082015250565b6000611fd6601683611f8f565b9150611fe182611fa0565b602082019050919050565b6000602082019050818103600083015261200581611fc9565b9050919050565b7f496c20706f7374206e6f6e206573697374650000000000000000000000000000600082015250565b6000612042601283611f8f565b915061204d8261200c565b602082019050919050565b6000602082019050818103600083015261207181612035565b9050919050565b7f4e487b7100000000000000000000000000000000000000000000000000000000600052602260045260246000fd5b600060028204905060018216806120bf57607f821691505b6020821081036120d2576120d1612078565b5b50919050565b60008190508160005260206000209050919050565b60006020601f8301049050919050565b600082821b905092915050565b60006008830261213a7fffffffffffffffffffffffffffffffffffffffffffffffffffffffffffffffff826120fd565b61214486836120fd565b95508019841693508086168417925050509392505050565b6000819050919050565b600061218161217c61217784611793565b61215c565b611793565b9050919050565b6000819050919050565b61219b83612166565b6121af6121a782612188565b84845461210a565b825550505050565b600090565b6121c46121b7565b6121cf818484612192565b505050565b5b818110156121f3576121e86000826121bc565b6001810190506121d5565b5050565b601f82111561223857612209816120d8565b612212846120ed565b81016020851015612221578190505b61223561222d856120ed565b8301826121d4565b50505b505050565b600082821c905092915050565b600061225b6000198460080261223d565b1980831691505092915050565b6000612274838361224a565b9150826002028217905092915050565b61228d82611b0f565b67ffffffffffffffff8111156122a6576122a56117e4565b5b6122b082546120a7565b6122bb8282856121f7565b600060209050601f8311600181146122ee57600084156122dc578287015190505b6122e68582612268565b86555061234e565b601f1984166122fc866120d8565b60005b82811015612324578489015182556001820191506020850194506020810190506122ff565b86831015612341578489015161233d601f89168261224a565b8355505b6001600288020188555050505b505050505050565b7f4e487b7100000000000000000000000000000000000000000000000000000000600052601160045260246000fd5b600061239082611793565b91507fffffffffffffffffffffffffffffffffffffffffffffffffffffffffffffffff82036123c2576123c1612356565b5b600182019050919050565b7f496c2047727570706f206e6f6e20657369737465203a28000000000000000000600082015250565b6000612403601783611f8f565b915061240e826123cd565b602082019050919050565b60006020820190508181036000830152612432816123f6565b9050919050565b7f4e487b7100000000000000000000000000000000000000000000000000000000600052603260045260246000fd5b7f50756f69206d65747465726520756e206c696b652070657220706f7374000000600082015250565b600061249e601d83611f8f565b91506124a982612468565b602082019050919050565b600060208201905081810360008301526124cd81612491565b9050919050565b600060ff82169050919050565b6124ea816124d4565b81146124f557600080fd5b50565b600081519050612507816124e1565b92915050565b60006020828403121561252357612522611789565b5b6000612531848285016124f8565b91505092915050565b60008160011c9050919050565b6000808291508390505b60018511156125915780860481111561256d5761256c612356565b5b600185161561257c5780820291505b808102905061258a8561253a565b9450612551565b94509492505050565b6000826125aa5760019050612666565b816125b85760009050612666565b81600181146125ce57600281146125d857612607565b6001915050612666565b60ff8411156125ea576125e9612356565b5b8360020a91508482111561260157612600612356565b5b50612666565b5060208310610133831016604e8410600b841016171561263c5782820a90508381111561263757612636612356565b5b612666565b6126498484846001612547565b925090508184048111156126605761265f612356565b5b81810290505b9392505050565b600061267882611793565b9150612683836124d4565b92506126b07fffffffffffffffffffffffffffffffffffffffffffffffffffffffffffffffff848461259a565b905092915050565b60006126c382611793565b91506126ce83611793565b92508282026126dc81611793565b915082820484148315176126f3576126f2612356565b5b5092915050565b612703816119b7565b82525050565b600060408201905061271e60008301856126fa565b61272b6020830184611aaa565b9392505050565b7f496c207469746f6c6f20737570657261206c61206c756e6768657a7a61206d6160008201527f7373696d61206469203635206361726174746572690000000000000000000000602082015250565b600061278e603583611f8f565b915061279982612732565b604082019050919050565b600060208201905081810360008301526127bd81612781565b9050919050565b600067ffffffffffffffff8211156127df576127de6117e4565b5b602082029050602081019050919050565b600080fd5b6127fe816119b7565b811461280957600080fd5b50565b60008151905061281b816127f5565b92915050565b600061283461282f846127c4565b611844565b90508083825260208201905060208402830185811115612857576128566127f0565b5b835b81811015612880578061286c888261280c565b845260208401935050602081019050612859565b5050509392505050565b600082601f83011261289f5761289e6117c9565b5b81516128af848260208601612821565b91505092915050565b6000602082840312156128ce576128cd611789565b5b600082015167ffffffffffffffff8111156128ec576128eb61178e565b5b6128f88482850161288a565b9150509291505056fea2646970667358221220db6f2be28796bc3b7c54ae47b3a3da2730baa3c7eafd23eab20e8f4a0eab369a64736f6c634300081c003354656d61746963686520646920636f64696e672065207376696c7570706f20736f667477617265416c6c656e616d656e74692c206469657465206520636f6e7369676c6920706572206c612073616c757465436f6e646976696469206c65207475652070617373696f6e69206d75736963616c6944697363757373696f6e6920737520726f6d616e7a692065206c65747475726520696e746572657373616e746944657374696e617a696f6e69206520636f6e7369676c69206469207669616767696f44697363757373696f6e692073752073706f727420652061747469766974612720666973696361",
  "linkReferences": {},
  "deployedLinkReferences": {}
}