{
  "_format": "hh-sol-artifact-1",
  "contractName": "gruppo",
  "sourceName": "contracts/gruppo.sol",
  "abi": [
    {
      "inputs": [
        {
          "internalType": "address",
          "name": "_utenteProgettoAddress",
          "type": "address"
        }
      ],
      "stateMutability": "nonpayable",
      "type": "constructor"
    },
    {
      "anonymous": false,
      "inputs": [
        {
          "indexed": true,
          "internalType": "address",
          "name": "_address",
          "type": "address"
        }
      ],
      "name": "AddressAdded",
      "type": "event"
    },
    {
      "inputs": [
        {
          "internalType": "uint256",
          "name": "_id_post",
          "type": "uint256"
        }
      ],
      "name": "addLike",
      "outputs": [],
      "stateMutability": "nonpayable",
      "type": "function"
    },
    {
      "inputs": [
        {
          "internalType": "uint256",
          "name": "_id_gruppo",
          "type": "uint256"
        },
        {
          "internalType": "string",
          "name": "_titolo",
          "type": "string"
        },
        {
          "internalType": "string",
          "name": "_descrizione",
          "type": "string"
        }
      ],
      "name": "createPost",
      "outputs": [],
      "stateMutability": "nonpayable",
      "type": "function"
    },
    {
      "inputs": [
        {
          "internalType": "uint256",
          "name": "_id_post",
          "type": "uint256"
        },
        {
          "internalType": "string",
          "name": "_descrizione",
          "type": "string"
        }
      ],
      "name": "create_commento",
      "outputs": [],
      "stateMutability": "nonpayable",
      "type": "function"
    },
    {
      "inputs": [],
      "name": "get_address_gruppo",
      "outputs": [
        {
          "internalType": "address[]",
          "name": "",
          "type": "address[]"
        }
      ],
      "stateMutability": "nonpayable",
      "type": "function"
    }
  ],
  "bytecode": "0x6080604052600080556000600155600060025534801561001e57600080fd5b5060405161234138038061234183398181016040528101906100409190610854565b80600760006101000a81548173ffffffffffffffffffffffffffffffffffffffff021916908373ffffffffffffffffffffffffffffffffffffffff16021790555061008f6104ab60201b60201c565b6100ec6040518060400160405280600581526020017f53706f727400000000000000000000000000000000000000000000000000000081525060405180606001604052806027815260200161231a6027913961068e60201b60201c565b6101496040518060400160405280600e81526020017f50726f6772616d6d617a696f6e650000000000000000000000000000000000008152506040518060600160405280602781526020016122576027913961068e60201b60201c565b6101a66040518060400160405280600681526020017f4d757369636100000000000000000000000000000000000000000000000000008152506040518060600160405280602281526020016122a96022913961068e60201b60201c565b6102206040518060400160405280600681526020017f437563696e6100000000000000000000000000000000000000000000000000008152506040518060400160405280601a81526020017f52696365747465206520747275636368692063756c696e61726900000000000081525061068e60201b60201c565b61027d6040518060400160405280600681526020017f56696167676900000000000000000000000000000000000000000000000000008152506040518060600160405280602281526020016122f86022913961068e60201b60201c565b6102f76040518060400160405280600681526020017f43696e656d6100000000000000000000000000000000000000000000000000008152506040518060400160405280601b81526020017f46696c6d2c207365726965205456206520726563656e73696f6e69000000000081525061068e60201b60201c565b6103546040518060400160405280600581526020017f4c696272690000000000000000000000000000000000000000000000000000008152506040518060600160405280602d81526020016122cb602d913961068e60201b60201c565b6103ce6040518060400160405280600b81526020017f566964656f67696f6368690000000000000000000000000000000000000000008152506040518060400160405280602081526020017f547574746f2073756920766964656f67616d6573206520696c2067616d696e6781525061068e60201b60201c565b61042b6040518060400160405280600781526020017f4669746e657373000000000000000000000000000000000000000000000000008152506040518060600160405280602b815260200161227e602b913961068e60201b60201c565b6104a56040518060400160405280600a81526020017f5465636e6f6c6f676961000000000000000000000000000000000000000000008152506040518060400160405280601b81526020017f556c74696d65206e6f76697461272065207472656e642074656368000000000081525061068e60201b60201c565b50610dbc565b600760009054906101000a900473ffffffffffffffffffffffffffffffffffffffff1673ffffffffffffffffffffffffffffffffffffffff16630131222f6040518163ffffffff1660e01b8152600401600060405180830381865afa158015610518573d6000803e3d6000fd5b505050506040513d6000823e3d601f19601f8201168201806040525081019061054191906109da565b6009908051906020019061055692919061073b565b5060005b60098054905081101561068b576001600860006009848154811061058157610580610a23565b5b9060005260206000200160009054906101000a900473ffffffffffffffffffffffffffffffffffffffff1673ffffffffffffffffffffffffffffffffffffffff1673ffffffffffffffffffffffffffffffffffffffff16815260200190815260200160002060006101000a81548160ff0219169083151502179055506009818154811061061157610610610a23565b5b9060005260206000200160009054906101000a900473ffffffffffffffffffffffffffffffffffffffff1673ffffffffffffffffffffffffffffffffffffffff167fa226db3f664042183ee0281230bba26cbf7b5057e50aee7f25a175ff45ce4d7f60405160405180910390a2808060010191505061055a565b50565b60006040518060a00160405280600054815260200184815260200183815260200160008152602001600081525090508060036000805481526020019081526020016000206000820151816000015560208201518160010190816106f19190610c73565b5060408201518160020190816107079190610c73565b50606082015181600301556080820151816004015590505060008081548092919061073190610d74565b9190505550505050565b8280548282559060005260206000209081019282156107b4579160200282015b828111156107b35782518260006101000a81548173ffffffffffffffffffffffffffffffffffffffff021916908373ffffffffffffffffffffffffffffffffffffffff1602179055509160200191906001019061075b565b5b5090506107c191906107c5565b5090565b5b808211156107de5760008160009055506001016107c6565b5090565b6000604051905090565b600080fd5b600080fd5b600073ffffffffffffffffffffffffffffffffffffffff82169050919050565b6000610821826107f6565b9050919050565b61083181610816565b811461083c57600080fd5b50565b60008151905061084e81610828565b92915050565b60006020828403121561086a576108696107ec565b5b60006108788482850161083f565b91505092915050565b600080fd5b6000601f19601f8301169050919050565b7f4e487b7100000000000000000000000000000000000000000000000000000000600052604160045260246000fd5b6108cf82610886565b810181811067ffffffffffffffff821117156108ee576108ed610897565b5b80604052505050565b60006109016107e2565b905061090d82826108c6565b919050565b600067ffffffffffffffff82111561092d5761092c610897565b5b602082029050602081019050919050565b600080fd5b600061095661095184610912565b6108f7565b905080838252602082019050602084028301858111156109795761097861093e565b5b835b818110156109a2578061098e888261083f565b84526020840193505060208101905061097b565b5050509392505050565b600082601f8301126109c1576109c0610881565b5b81516109d1848260208601610943565b91505092915050565b6000602082840312156109f0576109ef6107ec565b5b600082015167ffffffffffffffff811115610a0e57610a0d6107f1565b5b610a1a848285016109ac565b91505092915050565b7f4e487b7100000000000000000000000000000000000000000000000000000000600052603260045260246000fd5b600081519050919050565b7f4e487b7100000000000000000000000000000000000000000000000000000000600052602260045260246000fd5b60006002820490506001821680610aa457607f821691505b602082108103610ab757610ab6610a5d565b5b50919050565b60008190508160005260206000209050919050565b60006020601f8301049050919050565b600082821b905092915050565b600060088302610b1f7fffffffffffffffffffffffffffffffffffffffffffffffffffffffffffffffff82610ae2565b610b298683610ae2565b95508019841693508086168417925050509392505050565b6000819050919050565b6000819050919050565b6000610b70610b6b610b6684610b41565b610b4b565b610b41565b9050919050565b6000819050919050565b610b8a83610b55565b610b9e610b9682610b77565b848454610aef565b825550505050565b600090565b610bb3610ba6565b610bbe818484610b81565b505050565b5b81811015610be257610bd7600082610bab565b600181019050610bc4565b5050565b601f821115610c2757610bf881610abd565b610c0184610ad2565b81016020851015610c10578190505b610c24610c1c85610ad2565b830182610bc3565b50505b505050565b600082821c905092915050565b6000610c4a60001984600802610c2c565b1980831691505092915050565b6000610c638383610c39565b9150826002028217905092915050565b610c7c82610a52565b67ffffffffffffffff811115610c9557610c94610897565b5b610c9f8254610a8c565b610caa828285610be6565b600060209050601f831160018114610cdd5760008415610ccb578287015190505b610cd58582610c57565b865550610d3d565b601f198416610ceb86610abd565b60005b82811015610d1357848901518255600182019150602085019450602081019050610cee565b86831015610d305784890151610d2c601f891682610c39565b8355505b6001600288020188555050505b505050505050565b7f4e487b7100000000000000000000000000000000000000000000000000000000600052601160045260246000fd5b6000610d7f82610b41565b91507fffffffffffffffffffffffffffffffffffffffffffffffffffffffffffffffff8203610db157610db0610d45565b5b600182019050919050565b61148c80610dcb6000396000f3fe608060405234801561001057600080fd5b506004361061004c5760003560e01c80630e9c35b3146100515780630eb5ad721461006d578063378a35cd1461008b5780634e9b4739146100a7575b600080fd5b61006b60048036038101906100669190610b11565b6100c3565b005b61007561027d565b6040516100829190610c5d565b60405180910390f35b6100a560048036038101906100a09190610c7f565b610313565b005b6100c160048036038101906100bc9190610cac565b6104b7565b005b600860003373ffffffffffffffffffffffffffffffffffffffff1673ffffffffffffffffffffffffffffffffffffffff16815260200190815260200160002060009054906101000a900460ff1661014f576040517f08c379a000000000000000000000000000000000000000000000000000000000815260040161014690610d94565b60405180910390fd5b816000811015801561016357506001548111155b6101a2576040517f08c379a000000000000000000000000000000000000000000000000000000000815260040161019990610e00565b60405180910390fd5b6101aa6106f7565b600060405180606001604052808581526020018481526020013373ffffffffffffffffffffffffffffffffffffffff168152509050806005600060025481526020019081526020016000206000820151816000015560208201518160010190816102149190611037565b5060408201518160020160006101000a81548173ffffffffffffffffffffffffffffffffffffffff021916908373ffffffffffffffffffffffffffffffffffffffff1602179055509050506002600081548092919061027290611138565b919050555050505050565b60606102876106f7565b600980548060200260200160405190810160405280929190818152602001828054801561030957602002820191906000526020600020905b8160009054906101000a900473ffffffffffffffffffffffffffffffffffffffff1673ffffffffffffffffffffffffffffffffffffffff16815260200190600101908083116102bf575b5050505050905090565b600860003373ffffffffffffffffffffffffffffffffffffffff1673ffffffffffffffffffffffffffffffffffffffff16815260200190815260200160002060009054906101000a900460ff1661039f576040517f08c379a000000000000000000000000000000000000000000000000000000000815260040161039690610d94565b60405180910390fd5b600660003373ffffffffffffffffffffffffffffffffffffffff1673ffffffffffffffffffffffffffffffffffffffff16815260200190815260200160002060009054906101000a900460ff161561042c576040517f08c379a0000000000000000000000000000000000000000000000000000000008152600401610423906111cc565b60405180910390fd5b806000811015801561044057506001548111155b61047f576040517f08c379a000000000000000000000000000000000000000000000000000000000815260040161047690610e00565b60405180910390fd5b6104876106f7565b6004600083815260200190815260200160002060040160008154809291906104ae90611138565b91905055505050565b600860003373ffffffffffffffffffffffffffffffffffffffff1673ffffffffffffffffffffffffffffffffffffffff16815260200190815260200160002060009054906101000a900460ff16610543576040517f08c379a000000000000000000000000000000000000000000000000000000000815260040161053a90610d94565b60405180910390fd5b8260098111158015610556575060008110155b610595576040517f08c379a000000000000000000000000000000000000000000000000000000000815260040161058c90611238565b60405180910390fd5b826041815111156105db576040517f08c379a00000000000000000000000000000000000000000000000000000000081526004016105d2906112ca565b60405180910390fd5b6105e36106f7565b60006040518060c001604052808781526020016001548152602001868152602001858152602001600081526020013373ffffffffffffffffffffffffffffffffffffffff168152509050806004600060015481526020019081526020016000206000820151816000015560208201518160010155604082015181600201908161066c9190611037565b5060608201518160030190816106829190611037565b506080820151816004015560a08201518160050160006101000a81548173ffffffffffffffffffffffffffffffffffffffff021916908373ffffffffffffffffffffffffffffffffffffffff160217905550905050600160008154809291906106ea90611138565b9190505550505050505050565b600760009054906101000a900473ffffffffffffffffffffffffffffffffffffffff1673ffffffffffffffffffffffffffffffffffffffff16630131222f6040518163ffffffff1660e01b8152600401600060405180830381865afa158015610764573d6000803e3d6000fd5b505050506040513d6000823e3d601f19601f8201168201806040525081019061078d91906113de565b600990805190602001906107a29291906108da565b5060005b6009805490508110156108d757600160086000600984815481106107cd576107cc611427565b5b9060005260206000200160009054906101000a900473ffffffffffffffffffffffffffffffffffffffff1673ffffffffffffffffffffffffffffffffffffffff1673ffffffffffffffffffffffffffffffffffffffff16815260200190815260200160002060006101000a81548160ff0219169083151502179055506009818154811061085d5761085c611427565b5b9060005260206000200160009054906101000a900473ffffffffffffffffffffffffffffffffffffffff1673ffffffffffffffffffffffffffffffffffffffff167fa226db3f664042183ee0281230bba26cbf7b5057e50aee7f25a175ff45ce4d7f60405160405180910390a280806001019150506107a6565b50565b828054828255906000526020600020908101928215610953579160200282015b828111156109525782518260006101000a81548173ffffffffffffffffffffffffffffffffffffffff021916908373ffffffffffffffffffffffffffffffffffffffff160217905550916020019190600101906108fa565b5b5090506109609190610964565b5090565b5b8082111561097d576000816000905550600101610965565b5090565b6000604051905090565b600080fd5b600080fd5b6000819050919050565b6109a881610995565b81146109b357600080fd5b50565b6000813590506109c58161099f565b92915050565b600080fd5b600080fd5b6000601f19601f8301169050919050565b7f4e487b7100000000000000000000000000000000000000000000000000000000600052604160045260246000fd5b610a1e826109d5565b810181811067ffffffffffffffff82111715610a3d57610a3c6109e6565b5b80604052505050565b6000610a50610981565b9050610a5c8282610a15565b919050565b600067ffffffffffffffff821115610a7c57610a7b6109e6565b5b610a85826109d5565b9050602081019050919050565b82818337600083830152505050565b6000610ab4610aaf84610a61565b610a46565b905082815260208101848484011115610ad057610acf6109d0565b5b610adb848285610a92565b509392505050565b600082601f830112610af857610af76109cb565b5b8135610b08848260208601610aa1565b91505092915050565b60008060408385031215610b2857610b2761098b565b5b6000610b36858286016109b6565b925050602083013567ffffffffffffffff811115610b5757610b56610990565b5b610b6385828601610ae3565b9150509250929050565b600081519050919050565b600082825260208201905092915050565b6000819050602082019050919050565b600073ffffffffffffffffffffffffffffffffffffffff82169050919050565b6000610bc482610b99565b9050919050565b610bd481610bb9565b82525050565b6000610be68383610bcb565b60208301905092915050565b6000602082019050919050565b6000610c0a82610b6d565b610c148185610b78565b9350610c1f83610b89565b8060005b83811015610c50578151610c378882610bda565b9750610c4283610bf2565b925050600181019050610c23565b5085935050505092915050565b60006020820190508181036000830152610c778184610bff565b905092915050565b600060208284031215610c9557610c9461098b565b5b6000610ca3848285016109b6565b91505092915050565b600080600060608486031215610cc557610cc461098b565b5b6000610cd3868287016109b6565b935050602084013567ffffffffffffffff811115610cf457610cf3610990565b5b610d0086828701610ae3565b925050604084013567ffffffffffffffff811115610d2157610d20610990565b5b610d2d86828701610ae3565b9150509250925092565b600082825260208201905092915050565b7f6163636f756e74206e6f6e207265676973747261746f00000000000000000000600082015250565b6000610d7e601683610d37565b9150610d8982610d48565b602082019050919050565b60006020820190508181036000830152610dad81610d71565b9050919050565b7f696c20706f7374206e6f6e206573697374650000000000000000000000000000600082015250565b6000610dea601283610d37565b9150610df582610db4565b602082019050919050565b60006020820190508181036000830152610e1981610ddd565b9050919050565b600081519050919050565b7f4e487b7100000000000000000000000000000000000000000000000000000000600052602260045260246000fd5b60006002820490506001821680610e7257607f821691505b602082108103610e8557610e84610e2b565b5b50919050565b60008190508160005260206000209050919050565b60006020601f8301049050919050565b600082821b905092915050565b600060088302610eed7fffffffffffffffffffffffffffffffffffffffffffffffffffffffffffffffff82610eb0565b610ef78683610eb0565b95508019841693508086168417925050509392505050565b6000819050919050565b6000610f34610f2f610f2a84610995565b610f0f565b610995565b9050919050565b6000819050919050565b610f4e83610f19565b610f62610f5a82610f3b565b848454610ebd565b825550505050565b600090565b610f77610f6a565b610f82818484610f45565b505050565b5b81811015610fa657610f9b600082610f6f565b600181019050610f88565b5050565b601f821115610feb57610fbc81610e8b565b610fc584610ea0565b81016020851015610fd4578190505b610fe8610fe085610ea0565b830182610f87565b50505b505050565b600082821c905092915050565b600061100e60001984600802610ff0565b1980831691505092915050565b60006110278383610ffd565b9150826002028217905092915050565b61104082610e20565b67ffffffffffffffff811115611059576110586109e6565b5b6110638254610e5a565b61106e828285610faa565b600060209050601f8311600181146110a1576000841561108f578287015190505b611099858261101b565b865550611101565b601f1984166110af86610e8b565b60005b828110156110d7578489015182556001820191506020850194506020810190506110b2565b868310156110f457848901516110f0601f891682610ffd565b8355505b6001600288020188555050505b505050505050565b7f4e487b7100000000000000000000000000000000000000000000000000000000600052601160045260246000fd5b600061114382610995565b91507fffffffffffffffffffffffffffffffffffffffffffffffffffffffffffffffff820361117557611174611109565b5b600182019050919050565b7f50756f69206d65747465726520756e206c696b652070657220706f7374000000600082015250565b60006111b6601d83610d37565b91506111c182611180565b602082019050919050565b600060208201905081810360008301526111e5816111a9565b9050919050565b7f496c2047727570706f206e6f6e20657369737465203a28000000000000000000600082015250565b6000611222601783610d37565b915061122d826111ec565b602082019050919050565b6000602082019050818103600083015261125181611215565b9050919050565b7f496c207469746f6c6f20737570657261206c61206c756e6768657a7a61206d6160008201527f7373696d61206469203635206361726174746572690000000000000000000000602082015250565b60006112b4603583610d37565b91506112bf82611258565b604082019050919050565b600060208201905081810360008301526112e3816112a7565b9050919050565b600067ffffffffffffffff821115611305576113046109e6565b5b602082029050602081019050919050565b600080fd5b61132481610bb9565b811461132f57600080fd5b50565b6000815190506113418161131b565b92915050565b600061135a611355846112ea565b610a46565b9050808382526020820190506020840283018581111561137d5761137c611316565b5b835b818110156113a657806113928882611332565b84526020840193505060208101905061137f565b5050509392505050565b600082601f8301126113c5576113c46109cb565b5b81516113d5848260208601611347565b91505092915050565b6000602082840312156113f4576113f361098b565b5b600082015167ffffffffffffffff81111561141257611411610990565b5b61141e848285016113b0565b91505092915050565b7f4e487b7100000000000000000000000000000000000000000000000000000000600052603260045260246000fdfea26469706673582212203dda2353ecc87ef07aff661f5e291efeb4de7df8b06666f03b95a0820015194864736f6c634300081c003354656d61746963686520646920636f64696e672065207376696c7570706f20736f667477617265416c6c656e616d656e74692c206469657465206520636f6e7369676c6920706572206c612073616c757465436f6e646976696469206c65207475652070617373696f6e69206d75736963616c6944697363757373696f6e6920737520726f6d616e7a692065206c65747475726520696e746572657373616e746944657374696e617a696f6e69206520636f6e7369676c69206469207669616767696f44697363757373696f6e692073752073706f727420652061747469766974612720666973696361",
  "linkReferences": {},
  "deployedLinkReferences": {}
}