{
  "_format": "hh-sol-artifact-1",
  "contractName": "gruppo",
  "sourceName": "contracts/gruppo.sol",
  "abi": [
    {
      "inputs": [
        {
          "internalType": "address",
          "name": "_utenteProgettoAddress",
          "type": "address"
        },
        {
          "internalType": "address",
          "name": "_purpleCoinAddress",
          "type": "address"
        }
      ],
      "stateMutability": "nonpayable",
      "type": "constructor"
    },
    {
      "anonymous": false,
      "inputs": [
        {
          "indexed": true,
          "internalType": "address",
          "name": "_address",
          "type": "address"
        }
      ],
      "name": "AddressAdded",
      "type": "event"
    },
    {
      "inputs": [
        {
          "internalType": "uint256",
          "name": "_id_post",
          "type": "uint256"
        }
      ],
      "name": "addLike",
      "outputs": [],
      "stateMutability": "nonpayable",
      "type": "function"
    },
    {
      "inputs": [
        {
          "internalType": "uint256",
          "name": "_id_gruppo",
          "type": "uint256"
        },
        {
          "internalType": "string",
          "name": "_titolo",
          "type": "string"
        },
        {
          "internalType": "string",
          "name": "_descrizione",
          "type": "string"
        }
      ],
      "name": "createPost",
      "outputs": [],
      "stateMutability": "nonpayable",
      "type": "function"
    },
    {
      "inputs": [
        {
          "internalType": "uint256",
          "name": "_id_post",
          "type": "uint256"
        },
        {
          "internalType": "string",
          "name": "_descrizione",
          "type": "string"
        }
      ],
      "name": "create_commento",
      "outputs": [],
      "stateMutability": "nonpayable",
      "type": "function"
    },
    {
      "inputs": [],
      "name": "getAllPosts",
      "outputs": [
        {
          "components": [
            {
              "internalType": "uint256",
              "name": "id_gruppo_post",
              "type": "uint256"
            },
            {
              "internalType": "uint256",
              "name": "id_post",
              "type": "uint256"
            },
            {
              "internalType": "string",
              "name": "titolo",
              "type": "string"
            },
            {
              "internalType": "string",
              "name": "descrizione",
              "type": "string"
            },
            {
              "internalType": "uint256",
              "name": "n_like",
              "type": "uint256"
            },
            {
              "internalType": "address",
              "name": "account",
              "type": "address"
            },
            {
              "internalType": "bool",
              "name": "rewarded",
              "type": "bool"
            }
          ],
          "internalType": "struct gruppo.Post[]",
          "name": "",
          "type": "tuple[]"
        }
      ],
      "stateMutability": "view",
      "type": "function"
    },
    {
      "inputs": [],
      "name": "get_address_gruppo",
      "outputs": [
        {
          "internalType": "address[]",
          "name": "",
          "type": "address[]"
        }
      ],
      "stateMutability": "nonpayable",
      "type": "function"
    }
  ],
  "bytecode": "0x6080604052600080556000600155600060025534801561001e57600080fd5b50604051612d25380380612d2583398181016040528101906100409190610896565b81600760006101000a81548173ffffffffffffffffffffffffffffffffffffffff021916908373ffffffffffffffffffffffffffffffffffffffff16021790555080600860006101000a81548173ffffffffffffffffffffffffffffffffffffffff021916908373ffffffffffffffffffffffffffffffffffffffff1602179055506100d06104ed60201b60201c565b61012d6040518060400160405280600581526020017f53706f7274000000000000000000000000000000000000000000000000000000815250604051806060016040528060278152602001612cfe602791396106d060201b60201c565b61018a6040518060400160405280600e81526020017f50726f6772616d6d617a696f6e65000000000000000000000000000000000000815250604051806060016040528060278152602001612c3b602791396106d060201b60201c565b6101e76040518060400160405280600681526020017f4d75736963610000000000000000000000000000000000000000000000000000815250604051806060016040528060228152602001612c8d602291396106d060201b60201c565b6102616040518060400160405280600681526020017f437563696e6100000000000000000000000000000000000000000000000000008152506040518060400160405280601a81526020017f52696365747465206520747275636368692063756c696e6172690000000000008152506106d060201b60201c565b6102be6040518060400160405280600681526020017f5669616767690000000000000000000000000000000000000000000000000000815250604051806060016040528060228152602001612cdc602291396106d060201b60201c565b6103386040518060400160405280600681526020017f43696e656d6100000000000000000000000000000000000000000000000000008152506040518060400160405280601b81526020017f46696c6d2c207365726965205456206520726563656e73696f6e6900000000008152506106d060201b60201c565b6103956040518060400160405280600581526020017f4c696272690000000000000000000000000000000000000000000000000000008152506040518060600160405280602d8152602001612caf602d91396106d060201b60201c565b61040f6040518060400160405280600b81526020017f566964656f67696f6368690000000000000000000000000000000000000000008152506040518060400160405280602081526020017f547574746f2073756920766964656f67616d6573206520696c2067616d696e678152506106d060201b60201c565b61046c6040518060400160405280600781526020017f4669746e657373000000000000000000000000000000000000000000000000008152506040518060600160405280602b8152602001612c62602b91396106d060201b60201c565b6104e66040518060400160405280600a81526020017f5465636e6f6c6f676961000000000000000000000000000000000000000000008152506040518060400160405280601b81526020017f556c74696d65206e6f76697461272065207472656e64207465636800000000008152506106d060201b60201c565b5050610e11565b600760009054906101000a900473ffffffffffffffffffffffffffffffffffffffff1673ffffffffffffffffffffffffffffffffffffffff16630131222f6040518163ffffffff1660e01b8152600401600060405180830381865afa15801561055a573d6000803e3d6000fd5b505050506040513d6000823e3d601f19601f820116820180604052508101906105839190610a2f565b600a908051906020019061059892919061077d565b5060005b600a805490508110156106cd57600160096000600a84815481106105c3576105c2610a78565b5b9060005260206000200160009054906101000a900473ffffffffffffffffffffffffffffffffffffffff1673ffffffffffffffffffffffffffffffffffffffff1673ffffffffffffffffffffffffffffffffffffffff16815260200190815260200160002060006101000a81548160ff021916908315150217905550600a818154811061065357610652610a78565b5b9060005260206000200160009054906101000a900473ffffffffffffffffffffffffffffffffffffffff1673ffffffffffffffffffffffffffffffffffffffff167fa226db3f664042183ee0281230bba26cbf7b5057e50aee7f25a175ff45ce4d7f60405160405180910390a2808060010191505061059c565b50565b60006040518060a00160405280600054815260200184815260200183815260200160008152602001600081525090508060036000805481526020019081526020016000206000820151816000015560208201518160010190816107339190610cc8565b5060408201518160020190816107499190610cc8565b50606082015181600301556080820151816004015590505060008081548092919061077390610dc9565b9190505550505050565b8280548282559060005260206000209081019282156107f6579160200282015b828111156107f55782518260006101000a81548173ffffffffffffffffffffffffffffffffffffffff021916908373ffffffffffffffffffffffffffffffffffffffff1602179055509160200191906001019061079d565b5b5090506108039190610807565b5090565b5b80821115610820576000816000905550600101610808565b5090565b6000604051905090565b600080fd5b600080fd5b600073ffffffffffffffffffffffffffffffffffffffff82169050919050565b600061086382610838565b9050919050565b61087381610858565b811461087e57600080fd5b50565b6000815190506108908161086a565b92915050565b600080604083850312156108ad576108ac61082e565b5b60006108bb85828601610881565b92505060206108cc85828601610881565b9150509250929050565b600080fd5b6000601f19601f8301169050919050565b7f4e487b7100000000000000000000000000000000000000000000000000000000600052604160045260246000fd5b610924826108db565b810181811067ffffffffffffffff82111715610943576109426108ec565b5b80604052505050565b6000610956610824565b9050610962828261091b565b919050565b600067ffffffffffffffff821115610982576109816108ec565b5b602082029050602081019050919050565b600080fd5b60006109ab6109a684610967565b61094c565b905080838252602082019050602084028301858111156109ce576109cd610993565b5b835b818110156109f757806109e38882610881565b8452602084019350506020810190506109d0565b5050509392505050565b600082601f830112610a1657610a156108d6565b5b8151610a26848260208601610998565b91505092915050565b600060208284031215610a4557610a4461082e565b5b600082015167ffffffffffffffff811115610a6357610a62610833565b5b610a6f84828501610a01565b91505092915050565b7f4e487b7100000000000000000000000000000000000000000000000000000000600052603260045260246000fd5b600081519050919050565b7f4e487b7100000000000000000000000000000000000000000000000000000000600052602260045260246000fd5b60006002820490506001821680610af957607f821691505b602082108103610b0c57610b0b610ab2565b5b50919050565b60008190508160005260206000209050919050565b60006020601f8301049050919050565b600082821b905092915050565b600060088302610b747fffffffffffffffffffffffffffffffffffffffffffffffffffffffffffffffff82610b37565b610b7e8683610b37565b95508019841693508086168417925050509392505050565b6000819050919050565b6000819050919050565b6000610bc5610bc0610bbb84610b96565b610ba0565b610b96565b9050919050565b6000819050919050565b610bdf83610baa565b610bf3610beb82610bcc565b848454610b44565b825550505050565b600090565b610c08610bfb565b610c13818484610bd6565b505050565b5b81811015610c3757610c2c600082610c00565b600181019050610c19565b5050565b601f821115610c7c57610c4d81610b12565b610c5684610b27565b81016020851015610c65578190505b610c79610c7185610b27565b830182610c18565b50505b505050565b600082821c905092915050565b6000610c9f60001984600802610c81565b1980831691505092915050565b6000610cb88383610c8e565b9150826002028217905092915050565b610cd182610aa7565b67ffffffffffffffff811115610cea57610ce96108ec565b5b610cf48254610ae1565b610cff828285610c3b565b600060209050601f831160018114610d325760008415610d20578287015190505b610d2a8582610cac565b865550610d92565b601f198416610d4086610b12565b60005b82811015610d6857848901518255600182019150602085019450602081019050610d43565b86831015610d855784890151610d81601f891682610c8e565b8355505b6001600288020188555050505b505050505050565b7f4e487b7100000000000000000000000000000000000000000000000000000000600052601160045260246000fd5b6000610dd482610b96565b91507fffffffffffffffffffffffffffffffffffffffffffffffffffffffffffffffff8203610e0657610e05610d9a565b5b600182019050919050565b611e1b80610e206000396000f3fe608060405234801561001057600080fd5b50600436106100575760003560e01c80630e9c35b31461005c5780630eb5ad72146100785780633056110014610096578063378a35cd146100b45780634e9b4739146100d0575b600080fd5b6100766004803603810190610071919061100e565b6100ec565b005b6100806102a6565b60405161008d919061115a565b60405180910390f35b61009e61033c565b6040516100ab919061138a565b60405180910390f35b6100ce60048036038101906100c991906113ac565b6105a9565b005b6100ea60048036038101906100e591906113d9565b610936565b005b600960003373ffffffffffffffffffffffffffffffffffffffff1673ffffffffffffffffffffffffffffffffffffffff16815260200190815260200160002060009054906101000a900460ff16610178576040517f08c379a000000000000000000000000000000000000000000000000000000000815260040161016f906114c1565b60405180910390fd5b816000811015801561018c57506001548111155b6101cb576040517f08c379a00000000000000000000000000000000000000000000000000000000081526004016101c29061152d565b60405180910390fd5b6101d3610b9f565b600060405180606001604052808581526020018481526020013373ffffffffffffffffffffffffffffffffffffffff1681525090508060056000600254815260200190815260200160002060008201518160000155602082015181600101908161023d9190611759565b5060408201518160020160006101000a81548173ffffffffffffffffffffffffffffffffffffffff021916908373ffffffffffffffffffffffffffffffffffffffff1602179055509050506002600081548092919061029b9061185a565b919050555050505050565b60606102b0610b9f565b600a80548060200260200160405190810160405280929190818152602001828054801561033257602002820191906000526020600020905b8160009054906101000a900473ffffffffffffffffffffffffffffffffffffffff1673ffffffffffffffffffffffffffffffffffffffff16815260200190600101908083116102e8575b5050505050905090565b6060600060015467ffffffffffffffff81111561035c5761035b610ee3565b5b60405190808252806020026020018201604052801561039557816020015b610382610d82565b81526020019060019003908161037a5790505b50905060005b6001548110156105a157600460008281526020019081526020016000206040518060e001604052908160008201548152602001600182015481526020016002820180546103e79061157c565b80601f01602080910402602001604051908101604052809291908181526020018280546104139061157c565b80156104605780601f1061043557610100808354040283529160200191610460565b820191906000526020600020905b81548152906001019060200180831161044357829003601f168201915b505050505081526020016003820180546104799061157c565b80601f01602080910402602001604051908101604052809291908181526020018280546104a59061157c565b80156104f25780601f106104c7576101008083540402835291602001916104f2565b820191906000526020600020905b8154815290600101906020018083116104d557829003601f168201915b50505050508152602001600482015481526020016005820160009054906101000a900473ffffffffffffffffffffffffffffffffffffffff1673ffffffffffffffffffffffffffffffffffffffff1673ffffffffffffffffffffffffffffffffffffffff1681526020016005820160149054906101000a900460ff161515151581525050828281518110610589576105886118a2565b5b6020026020010181905250808060010191505061039b565b508091505090565b600960003373ffffffffffffffffffffffffffffffffffffffff1673ffffffffffffffffffffffffffffffffffffffff16815260200190815260200160002060009054906101000a900460ff16610635576040517f08c379a000000000000000000000000000000000000000000000000000000000815260040161062c906114c1565b60405180910390fd5b600660003373ffffffffffffffffffffffffffffffffffffffff1673ffffffffffffffffffffffffffffffffffffffff16815260200190815260200160002060009054906101000a900460ff16156106c2576040517f08c379a00000000000000000000000000000000000000000000000000000000081526004016106b99061191d565b60405180910390fd5b80600081101580156106d657506001548111155b610715576040517f08c379a000000000000000000000000000000000000000000000000000000000815260040161070c9061152d565b60405180910390fd5b61071d610b9f565b6004600083815260200190815260200160002060040160008154809291906107449061185a565b91905055506003600460008481526020019081526020016000206004015414801561079057506004600083815260200190815260200160002060050160149054906101000a900460ff16155b1561093257600860009054906101000a900473ffffffffffffffffffffffffffffffffffffffff1673ffffffffffffffffffffffffffffffffffffffff166340c10f196004600085815260200190815260200160002060050160009054906101000a900473ffffffffffffffffffffffffffffffffffffffff16600860009054906101000a900473ffffffffffffffffffffffffffffffffffffffff1673ffffffffffffffffffffffffffffffffffffffff1663313ce5676040518163ffffffff1660e01b8152600401602060405180830381865afa158015610877573d6000803e3d6000fd5b505050506040513d601f19601f8201168201806040525081019061089b9190611976565b600a6108a79190611ad6565b60056108b39190611b21565b6040518363ffffffff1660e01b81526004016108d0929190611b81565b600060405180830381600087803b1580156108ea57600080fd5b505af11580156108fe573d6000803e3d6000fd5b5050505060016004600084815260200190815260200160002060050160146101000a81548160ff0219169083151502179055505b5050565b600960003373ffffffffffffffffffffffffffffffffffffffff1673ffffffffffffffffffffffffffffffffffffffff16815260200190815260200160002060009054906101000a900460ff166109c2576040517f08c379a00000000000000000000000000000000000000000000000000000000081526004016109b9906114c1565b60405180910390fd5b82600981111580156109d5575060008110155b610a14576040517f08c379a0000000000000000000000000000000000000000000000000000000008152600401610a0b90611bf6565b60405180910390fd5b82604181511115610a5a576040517f08c379a0000000000000000000000000000000000000000000000000000000008152600401610a5190611c88565b60405180910390fd5b610a62610b9f565b60006040518060e001604052808781526020016001548152602001868152602001858152602001600081526020013373ffffffffffffffffffffffffffffffffffffffff1681526020016000151581525090508060046000600154815260200190815260200160002060008201518160000155602082015181600101556040820151816002019081610af49190611759565b506060820151816003019081610b0a9190611759565b506080820151816004015560a08201518160050160006101000a81548173ffffffffffffffffffffffffffffffffffffffff021916908373ffffffffffffffffffffffffffffffffffffffff16021790555060c08201518160050160146101000a81548160ff02191690831515021790555090505060016000815480929190610b929061185a565b9190505550505050505050565b600760009054906101000a900473ffffffffffffffffffffffffffffffffffffffff1673ffffffffffffffffffffffffffffffffffffffff16630131222f6040518163ffffffff1660e01b8152600401600060405180830381865afa158015610c0c573d6000803e3d6000fd5b505050506040513d6000823e3d601f19601f82011682018060405250810190610c359190611d9c565b600a9080519060200190610c4a929190610dd7565b5060005b600a80549050811015610d7f57600160096000600a8481548110610c7557610c746118a2565b5b9060005260206000200160009054906101000a900473ffffffffffffffffffffffffffffffffffffffff1673ffffffffffffffffffffffffffffffffffffffff1673ffffffffffffffffffffffffffffffffffffffff16815260200190815260200160002060006101000a81548160ff021916908315150217905550600a8181548110610d0557610d046118a2565b5b9060005260206000200160009054906101000a900473ffffffffffffffffffffffffffffffffffffffff1673ffffffffffffffffffffffffffffffffffffffff167fa226db3f664042183ee0281230bba26cbf7b5057e50aee7f25a175ff45ce4d7f60405160405180910390a28080600101915050610c4e565b50565b6040518060e001604052806000815260200160008152602001606081526020016060815260200160008152602001600073ffffffffffffffffffffffffffffffffffffffff1681526020016000151581525090565b828054828255906000526020600020908101928215610e50579160200282015b82811115610e4f5782518260006101000a81548173ffffffffffffffffffffffffffffffffffffffff021916908373ffffffffffffffffffffffffffffffffffffffff16021790555091602001919060010190610df7565b5b509050610e5d9190610e61565b5090565b5b80821115610e7a576000816000905550600101610e62565b5090565b6000604051905090565b600080fd5b600080fd5b6000819050919050565b610ea581610e92565b8114610eb057600080fd5b50565b600081359050610ec281610e9c565b92915050565b600080fd5b600080fd5b6000601f19601f8301169050919050565b7f4e487b7100000000000000000000000000000000000000000000000000000000600052604160045260246000fd5b610f1b82610ed2565b810181811067ffffffffffffffff82111715610f3a57610f39610ee3565b5b80604052505050565b6000610f4d610e7e565b9050610f598282610f12565b919050565b600067ffffffffffffffff821115610f7957610f78610ee3565b5b610f8282610ed2565b9050602081019050919050565b82818337600083830152505050565b6000610fb1610fac84610f5e565b610f43565b905082815260208101848484011115610fcd57610fcc610ecd565b5b610fd8848285610f8f565b509392505050565b600082601f830112610ff557610ff4610ec8565b5b8135611005848260208601610f9e565b91505092915050565b6000806040838503121561102557611024610e88565b5b600061103385828601610eb3565b925050602083013567ffffffffffffffff81111561105457611053610e8d565b5b61106085828601610fe0565b9150509250929050565b600081519050919050565b600082825260208201905092915050565b6000819050602082019050919050565b600073ffffffffffffffffffffffffffffffffffffffff82169050919050565b60006110c182611096565b9050919050565b6110d1816110b6565b82525050565b60006110e383836110c8565b60208301905092915050565b6000602082019050919050565b60006111078261106a565b6111118185611075565b935061111c83611086565b8060005b8381101561114d57815161113488826110d7565b975061113f836110ef565b925050600181019050611120565b5085935050505092915050565b6000602082019050818103600083015261117481846110fc565b905092915050565b600081519050919050565b600082825260208201905092915050565b6000819050602082019050919050565b6111b181610e92565b82525050565b600081519050919050565b600082825260208201905092915050565b60005b838110156111f15780820151818401526020810190506111d6565b60008484015250505050565b6000611208826111b7565b61121281856111c2565b93506112228185602086016111d3565b61122b81610ed2565b840191505092915050565b60008115159050919050565b61124b81611236565b82525050565b600060e08301600083015161126960008601826111a8565b50602083015161127c60208601826111a8565b506040830151848203604086015261129482826111fd565b915050606083015184820360608601526112ae82826111fd565b91505060808301516112c360808601826111a8565b5060a08301516112d660a08601826110c8565b5060c08301516112e960c0860182611242565b508091505092915050565b60006113008383611251565b905092915050565b6000602082019050919050565b60006113208261117c565b61132a8185611187565b93508360208202850161133c85611198565b8060005b85811015611378578484038952815161135985826112f4565b945061136483611308565b925060208a01995050600181019050611340565b50829750879550505050505092915050565b600060208201905081810360008301526113a48184611315565b905092915050565b6000602082840312156113c2576113c1610e88565b5b60006113d084828501610eb3565b91505092915050565b6000806000606084860312156113f2576113f1610e88565b5b600061140086828701610eb3565b935050602084013567ffffffffffffffff81111561142157611420610e8d565b5b61142d86828701610fe0565b925050604084013567ffffffffffffffff81111561144e5761144d610e8d565b5b61145a86828701610fe0565b9150509250925092565b600082825260208201905092915050565b7f4163636f756e74206e6f6e207265676973747261746f00000000000000000000600082015250565b60006114ab601683611464565b91506114b682611475565b602082019050919050565b600060208201905081810360008301526114da8161149e565b9050919050565b7f496c20706f7374206e6f6e206573697374650000000000000000000000000000600082015250565b6000611517601283611464565b9150611522826114e1565b602082019050919050565b600060208201905081810360008301526115468161150a565b9050919050565b7f4e487b7100000000000000000000000000000000000000000000000000000000600052602260045260246000fd5b6000600282049050600182168061159457607f821691505b6020821081036115a7576115a661154d565b5b50919050565b60008190508160005260206000209050919050565b60006020601f8301049050919050565b600082821b905092915050565b60006008830261160f7fffffffffffffffffffffffffffffffffffffffffffffffffffffffffffffffff826115d2565b61161986836115d2565b95508019841693508086168417925050509392505050565b6000819050919050565b600061165661165161164c84610e92565b611631565b610e92565b9050919050565b6000819050919050565b6116708361163b565b61168461167c8261165d565b8484546115df565b825550505050565b600090565b61169961168c565b6116a4818484611667565b505050565b5b818110156116c8576116bd600082611691565b6001810190506116aa565b5050565b601f82111561170d576116de816115ad565b6116e7846115c2565b810160208510156116f6578190505b61170a611702856115c2565b8301826116a9565b50505b505050565b600082821c905092915050565b600061173060001984600802611712565b1980831691505092915050565b6000611749838361171f565b9150826002028217905092915050565b611762826111b7565b67ffffffffffffffff81111561177b5761177a610ee3565b5b611785825461157c565b6117908282856116cc565b600060209050601f8311600181146117c357600084156117b1578287015190505b6117bb858261173d565b865550611823565b601f1984166117d1866115ad565b60005b828110156117f9578489015182556001820191506020850194506020810190506117d4565b868310156118165784890151611812601f89168261171f565b8355505b6001600288020188555050505b505050505050565b7f4e487b7100000000000000000000000000000000000000000000000000000000600052601160045260246000fd5b600061186582610e92565b91507fffffffffffffffffffffffffffffffffffffffffffffffffffffffffffffffff82036118975761189661182b565b5b600182019050919050565b7f4e487b7100000000000000000000000000000000000000000000000000000000600052603260045260246000fd5b7f50756f69206d65747465726520756e206c696b652070657220706f7374000000600082015250565b6000611907601d83611464565b9150611912826118d1565b602082019050919050565b60006020820190508181036000830152611936816118fa565b9050919050565b600060ff82169050919050565b6119538161193d565b811461195e57600080fd5b50565b6000815190506119708161194a565b92915050565b60006020828403121561198c5761198b610e88565b5b600061199a84828501611961565b91505092915050565b60008160011c9050919050565b6000808291508390505b60018511156119fa578086048111156119d6576119d561182b565b5b60018516156119e55780820291505b80810290506119f3856119a3565b94506119ba565b94509492505050565b600082611a135760019050611acf565b81611a215760009050611acf565b8160018114611a375760028114611a4157611a70565b6001915050611acf565b60ff841115611a5357611a5261182b565b5b8360020a915084821115611a6a57611a6961182b565b5b50611acf565b5060208310610133831016604e8410600b8410161715611aa55782820a905083811115611aa057611a9f61182b565b5b611acf565b611ab284848460016119b0565b92509050818404811115611ac957611ac861182b565b5b81810290505b9392505050565b6000611ae182610e92565b9150611aec8361193d565b9250611b197fffffffffffffffffffffffffffffffffffffffffffffffffffffffffffffffff8484611a03565b905092915050565b6000611b2c82610e92565b9150611b3783610e92565b9250828202611b4581610e92565b91508282048414831517611b5c57611b5b61182b565b5b5092915050565b611b6c816110b6565b82525050565b611b7b81610e92565b82525050565b6000604082019050611b966000830185611b63565b611ba36020830184611b72565b9392505050565b7f496c2047727570706f206e6f6e20657369737465203a28000000000000000000600082015250565b6000611be0601783611464565b9150611beb82611baa565b602082019050919050565b60006020820190508181036000830152611c0f81611bd3565b9050919050565b7f496c207469746f6c6f20737570657261206c61206c756e6768657a7a61206d6160008201527f7373696d61206469203635206361726174746572690000000000000000000000602082015250565b6000611c72603583611464565b9150611c7d82611c16565b604082019050919050565b60006020820190508181036000830152611ca181611c65565b9050919050565b600067ffffffffffffffff821115611cc357611cc2610ee3565b5b602082029050602081019050919050565b600080fd5b611ce2816110b6565b8114611ced57600080fd5b50565b600081519050611cff81611cd9565b92915050565b6000611d18611d1384611ca8565b610f43565b90508083825260208201905060208402830185811115611d3b57611d3a611cd4565b5b835b81811015611d645780611d508882611cf0565b845260208401935050602081019050611d3d565b5050509392505050565b600082601f830112611d8357611d82610ec8565b5b8151611d93848260208601611d05565b91505092915050565b600060208284031215611db257611db1610e88565b5b600082015167ffffffffffffffff811115611dd057611dcf610e8d565b5b611ddc84828501611d6e565b9150509291505056fea2646970667358221220b9ec832e5812260c602fc4709d3fa5a522d1676ed4e4fbac80d3ce9a44c48fdf64736f6c634300081c003354656d61746963686520646920636f64696e672065207376696c7570706f20736f667477617265416c6c656e616d656e74692c206469657465206520636f6e7369676c6920706572206c612073616c757465436f6e646976696469206c65207475652070617373696f6e69206d75736963616c6944697363757373696f6e6920737520726f6d616e7a692065206c65747475726520696e746572657373616e746944657374696e617a696f6e69206520636f6e7369676c69206469207669616767696f44697363757373696f6e692073752073706f727420652061747469766974612720666973696361",
  "linkReferences": {},
  "deployedLinkReferences": {}
}