{
  "_format": "hh-sol-artifact-1",
  "contractName": "utente",
  "sourceName": "contracts/utente.sol",
  "abi": [
    {
      "inputs": [
        {
          "internalType": "address",
          "name": "_accountAddress",
          "type": "address"
        },
        {
          "internalType": "string",
          "name": "_name",
          "type": "string"
        }
      ],
      "name": "create_account",
      "outputs": [],
      "stateMutability": "nonpayable",
      "type": "function"
    },
    {
      "inputs": [],
      "name": "get_address",
      "outputs": [
        {
          "internalType": "address[]",
          "name": "",
          "type": "address[]"
        }
      ],
      "stateMutability": "view",
      "type": "function"
    },
    {
      "inputs": [],
      "name": "get_utente",
      "outputs": [
        {
          "internalType": "string[]",
          "name": "",
          "type": "string[]"
        }
      ],
      "stateMutability": "view",
      "type": "function"
    },
    {
      "inputs": [
        {
          "internalType": "address",
          "name": "_utente",
          "type": "address"
        }
      ],
      "name": "get_utente_registrato",
      "outputs": [
        {
          "internalType": "bool",
          "name": "",
          "type": "bool"
        }
      ],
      "stateMutability": "view",
      "type": "function"
    }
  ],
  "bytecode": "0x6080604052348015600f57600080fd5b5061106d8061001f6000396000f3fe608060405234801561001057600080fd5b506004361061004c5760003560e01c80630131222f1461005157806336c72d7d1461006f578063412872131461008d578063a64bc9f0146100bd575b600080fd5b6100596100d9565b6040516100669190610767565b60405180910390f35b610077610167565b60405161008491906108db565b60405180910390f35b6100a760048036038101906100a2919061093d565b61030b565b6040516100b49190610985565b60405180910390f35b6100d760048036038101906100d29190610ad5565b610361565b005b6060600280548060200260200160405190810160405280929190818152602001828054801561015d57602002820191906000526020600020905b8160009054906101000a900473ffffffffffffffffffffffffffffffffffffffff1673ffffffffffffffffffffffffffffffffffffffff1681526020019060010190808311610113575b5050505050905090565b6060600060028054905067ffffffffffffffff81111561018a576101896109aa565b5b6040519080825280602002602001820160405280156101bd57816020015b60608152602001906001900390816101a85790505b50905060005b60028054905081101561030357600080600283815481106101e7576101e6610b31565b5b9060005260206000200160009054906101000a900473ffffffffffffffffffffffffffffffffffffffff1673ffffffffffffffffffffffffffffffffffffffff1673ffffffffffffffffffffffffffffffffffffffff168152602001908152602001600020600101805461025a90610b8f565b80601f016020809104026020016040519081016040528092919081815260200182805461028690610b8f565b80156102d35780601f106102a8576101008083540402835291602001916102d3565b820191906000526020600020905b8154815290600101906020018083116102b657829003601f168201915b50505050508282815181106102eb576102ea610b31565b5b602002602001018190525080806001019150506101c3565b819250505090565b6000600160008373ffffffffffffffffffffffffffffffffffffffff1673ffffffffffffffffffffffffffffffffffffffff16815260200190815260200160002060009054906101000a900460ff169050919050565b600160003373ffffffffffffffffffffffffffffffffffffffff1673ffffffffffffffffffffffffffffffffffffffff16815260200190815260200160002060009054906101000a900460ff16156103ee576040517f08c379a00000000000000000000000000000000000000000000000000000000081526004016103e590610c43565b60405180910390fd5b8060005b6002805490508110156104e85781805190602001206000806002848154811061041e5761041d610b31565b5b9060005260206000200160009054906101000a900473ffffffffffffffffffffffffffffffffffffffff1673ffffffffffffffffffffffffffffffffffffffff1673ffffffffffffffffffffffffffffffffffffffff1681526020019081526020016000206001016040516104939190610d06565b6040518091039020036104db576040517f08c379a00000000000000000000000000000000000000000000000000000000081526004016104d290610d8f565b60405180910390fd5b80806001019150506103f2565b600060405180604001604052808673ffffffffffffffffffffffffffffffffffffffff168152602001858152509050806000808773ffffffffffffffffffffffffffffffffffffffff1673ffffffffffffffffffffffffffffffffffffffff16815260200190815260200160002060008201518160000160006101000a81548173ffffffffffffffffffffffffffffffffffffffff021916908373ffffffffffffffffffffffffffffffffffffffff16021790555060208201518160010190816105b29190610f65565b509050506002859080600181540180825580915050600190039060005260206000200160009091909190916101000a81548173ffffffffffffffffffffffffffffffffffffffff021916908373ffffffffffffffffffffffffffffffffffffffff16021790555060018060008773ffffffffffffffffffffffffffffffffffffffff1673ffffffffffffffffffffffffffffffffffffffff16815260200190815260200160002060006101000a81548160ff0219169083151502179055505050505050565b600081519050919050565b600082825260208201905092915050565b6000819050602082019050919050565b600073ffffffffffffffffffffffffffffffffffffffff82169050919050565b60006106ce826106a3565b9050919050565b6106de816106c3565b82525050565b60006106f083836106d5565b60208301905092915050565b6000602082019050919050565b600061071482610677565b61071e8185610682565b935061072983610693565b8060005b8381101561075a57815161074188826106e4565b975061074c836106fc565b92505060018101905061072d565b5085935050505092915050565b600060208201905081810360008301526107818184610709565b905092915050565b600081519050919050565b600082825260208201905092915050565b6000819050602082019050919050565b600081519050919050565b600082825260208201905092915050565b60005b838110156107ef5780820151818401526020810190506107d4565b60008484015250505050565b6000601f19601f8301169050919050565b6000610817826107b5565b61082181856107c0565b93506108318185602086016107d1565b61083a816107fb565b840191505092915050565b6000610851838361080c565b905092915050565b6000602082019050919050565b600061087182610789565b61087b8185610794565b93508360208202850161088d856107a5565b8060005b858110156108c957848403895281516108aa8582610845565b94506108b583610859565b925060208a01995050600181019050610891565b50829750879550505050505092915050565b600060208201905081810360008301526108f58184610866565b905092915050565b6000604051905090565b600080fd5b600080fd5b61091a816106c3565b811461092557600080fd5b50565b60008135905061093781610911565b92915050565b60006020828403121561095357610952610907565b5b600061096184828501610928565b91505092915050565b60008115159050919050565b61097f8161096a565b82525050565b600060208201905061099a6000830184610976565b92915050565b600080fd5b600080fd5b7f4e487b7100000000000000000000000000000000000000000000000000000000600052604160045260246000fd5b6109e2826107fb565b810181811067ffffffffffffffff82111715610a0157610a006109aa565b5b80604052505050565b6000610a146108fd565b9050610a2082826109d9565b919050565b600067ffffffffffffffff821115610a4057610a3f6109aa565b5b610a49826107fb565b9050602081019050919050565b82818337600083830152505050565b6000610a78610a7384610a25565b610a0a565b905082815260208101848484011115610a9457610a936109a5565b5b610a9f848285610a56565b509392505050565b600082601f830112610abc57610abb6109a0565b5b8135610acc848260208601610a65565b91505092915050565b60008060408385031215610aec57610aeb610907565b5b6000610afa85828601610928565b925050602083013567ffffffffffffffff811115610b1b57610b1a61090c565b5b610b2785828601610aa7565b9150509250929050565b7f4e487b7100000000000000000000000000000000000000000000000000000000600052603260045260246000fd5b7f4e487b7100000000000000000000000000000000000000000000000000000000600052602260045260246000fd5b60006002820490506001821680610ba757607f821691505b602082108103610bba57610bb9610b60565b5b50919050565b600082825260208201905092915050565b7f4c276163636f756e74206573697374652c20656666657474756120696c206c6f60008201527f67696e203a280000000000000000000000000000000000000000000000000000602082015250565b6000610c2d602683610bc0565b9150610c3882610bd1565b604082019050919050565b60006020820190508181036000830152610c5c81610c20565b9050919050565b600081905092915050565b60008190508160005260206000209050919050565b60008154610c9081610b8f565b610c9a8186610c63565b94506001821660008114610cb55760018114610cca57610cfd565b60ff1983168652811515820286019350610cfd565b610cd385610c6e565b60005b83811015610cf557815481890152600182019150602081019050610cd6565b838801955050505b50505092915050565b6000610d128284610c83565b915081905092915050565b7f4d692064697370696163652c206e69636b5f6e616d65206573697374656e746560008201527f203a280000000000000000000000000000000000000000000000000000000000602082015250565b6000610d79602383610bc0565b9150610d8482610d1d565b604082019050919050565b60006020820190508181036000830152610da881610d6c565b9050919050565b60008190508160005260206000209050919050565b60006020601f8301049050919050565b600082821b905092915050565b600060088302610e117fffffffffffffffffffffffffffffffffffffffffffffffffffffffffffffffff82610dd4565b610e1b8683610dd4565b95508019841693508086168417925050509392505050565b6000819050919050565b6000819050919050565b6000610e62610e5d610e5884610e33565b610e3d565b610e33565b9050919050565b6000819050919050565b610e7c83610e47565b610e90610e8882610e69565b848454610de1565b825550505050565b600090565b610ea5610e98565b610eb0818484610e73565b505050565b5b81811015610ed457610ec9600082610e9d565b600181019050610eb6565b5050565b601f821115610f1957610eea81610daf565b610ef384610dc4565b81016020851015610f02578190505b610f16610f0e85610dc4565b830182610eb5565b50505b505050565b600082821c905092915050565b6000610f3c60001984600802610f1e565b1980831691505092915050565b6000610f558383610f2b565b9150826002028217905092915050565b610f6e826107b5565b67ffffffffffffffff811115610f8757610f866109aa565b5b610f918254610b8f565b610f9c828285610ed8565b600060209050601f831160018114610fcf5760008415610fbd578287015190505b610fc78582610f49565b86555061102f565b601f198416610fdd86610daf565b60005b8281101561100557848901518255600182019150602085019450602081019050610fe0565b86831015611022578489015161101e601f891682610f2b565b8355505b6001600288020188555050505b50505050505056fea2646970667358221220b247b692355897cb72c64a26dd11dc8c2cd00e2d11755c1ffd038a6ff2ef595764736f6c634300081c0033",
  "linkReferences": {},
  "deployedLinkReferences": {}
}