{
  "_format": "hh-sol-artifact-1",
  "contractName": "Amethyst",
  "sourceName": "contracts/Amethyst.sol",
  "abi": [
    {
      "inputs": [
        {
          "internalType": "address",
          "name": "_purpleCoinAddress",
          "type": "address"
        }
      ],
      "stateMutability": "nonpayable",
      "type": "constructor"
    },
    {
      "inputs": [
        {
          "internalType": "string",
          "name": "_biografia",
          "type": "string"
        }
      ],
      "name": "addBiografia",
      "outputs": [],
      "stateMutability": "nonpayable",
      "type": "function"
    },
    {
      "inputs": [
        {
          "internalType": "uint256",
          "name": "_id_post",
          "type": "uint256"
        }
      ],
      "name": "addLike",
      "outputs": [],
      "stateMutability": "nonpayable",
      "type": "function"
    },
    {
      "inputs": [
        {
          "internalType": "uint256",
          "name": "_id_gruppo",
          "type": "uint256"
        },
        {
          "internalType": "string",
          "name": "_titolo",
          "type": "string"
        },
        {
          "internalType": "string",
          "name": "_descrizione",
          "type": "string"
        }
      ],
      "name": "createPost",
      "outputs": [],
      "stateMutability": "nonpayable",
      "type": "function"
    },
    {
      "inputs": [
        {
          "internalType": "address",
          "name": "_accountAddress",
          "type": "address"
        },
        {
          "internalType": "string",
          "name": "_name",
          "type": "string"
        }
      ],
      "name": "create_account",
      "outputs": [],
      "stateMutability": "nonpayable",
      "type": "function"
    },
    {
      "inputs": [
        {
          "internalType": "uint256",
          "name": "_id_post",
          "type": "uint256"
        },
        {
          "internalType": "string",
          "name": "_descrizione",
          "type": "string"
        }
      ],
      "name": "create_commento",
      "outputs": [],
      "stateMutability": "nonpayable",
      "type": "function"
    },
    {
      "inputs": [
        {
          "internalType": "uint256",
          "name": "_id_post",
          "type": "uint256"
        }
      ],
      "name": "deletePost",
      "outputs": [],
      "stateMutability": "nonpayable",
      "type": "function"
    },
    {
      "inputs": [],
      "name": "getAllPosts",
      "outputs": [
        {
          "components": [
            {
              "internalType": "uint256",
              "name": "id_gruppo_post",
              "type": "uint256"
            },
            {
              "internalType": "uint256",
              "name": "id_post",
              "type": "uint256"
            },
            {
              "internalType": "string",
              "name": "titolo",
              "type": "string"
            },
            {
              "internalType": "string",
              "name": "descrizione",
              "type": "string"
            },
            {
              "internalType": "uint256",
              "name": "n_like",
              "type": "uint256"
            },
            {
              "internalType": "string",
              "name": "account",
              "type": "string"
            },
            {
              "internalType": "bool",
              "name": "rewarded",
              "type": "bool"
            },
            {
              "internalType": "address",
              "name": "_sender",
              "type": "address"
            }
          ],
          "internalType": "struct Amethyst.Post[]",
          "name": "",
          "type": "tuple[]"
        }
      ],
      "stateMutability": "view",
      "type": "function"
    },
    {
      "inputs": [
        {
          "internalType": "address",
          "name": "user",
          "type": "address"
        }
      ],
      "name": "getBiografy",
      "outputs": [
        {
          "internalType": "string",
          "name": "",
          "type": "string"
        }
      ],
      "stateMutability": "view",
      "type": "function"
    },
    {
      "inputs": [
        {
          "internalType": "uint256",
          "name": "_id_post",
          "type": "uint256"
        }
      ],
      "name": "getCommenti",
      "outputs": [
        {
          "components": [
            {
              "internalType": "uint256",
              "name": "id_post_commento",
              "type": "uint256"
            },
            {
              "internalType": "string",
              "name": "descrizione",
              "type": "string"
            },
            {
              "internalType": "string",
              "name": "account",
              "type": "string"
            }
          ],
          "internalType": "struct Amethyst.Commento[]",
          "name": "",
          "type": "tuple[]"
        }
      ],
      "stateMutability": "view",
      "type": "function"
    },
    {
      "inputs": [
        {
          "internalType": "uint256",
          "name": "_id",
          "type": "uint256"
        }
      ],
      "name": "getGruppId",
      "outputs": [
        {
          "components": [
            {
              "internalType": "uint256",
              "name": "id_gruppo",
              "type": "uint256"
            },
            {
              "internalType": "string",
              "name": "nick_group",
              "type": "string"
            },
            {
              "internalType": "string",
              "name": "descrizione",
              "type": "string"
            },
            {
              "internalType": "uint256",
              "name": "n_like",
              "type": "uint256"
            },
            {
              "internalType": "uint256",
              "name": "n_post",
              "type": "uint256"
            }
          ],
          "internalType": "struct Amethyst.Gruppo",
          "name": "",
          "type": "tuple"
        }
      ],
      "stateMutability": "view",
      "type": "function"
    },
    {
      "inputs": [],
      "name": "getGruppi",
      "outputs": [
        {
          "components": [
            {
              "internalType": "uint256",
              "name": "id_gruppo",
              "type": "uint256"
            },
            {
              "internalType": "string",
              "name": "nick_group",
              "type": "string"
            },
            {
              "internalType": "string",
              "name": "descrizione",
              "type": "string"
            },
            {
              "internalType": "uint256",
              "name": "n_like",
              "type": "uint256"
            },
            {
              "internalType": "uint256",
              "name": "n_post",
              "type": "uint256"
            }
          ],
          "internalType": "struct Amethyst.Gruppo[]",
          "name": "",
          "type": "tuple[]"
        }
      ],
      "stateMutability": "view",
      "type": "function"
    },
    {
      "inputs": [
        {
          "internalType": "uint256",
          "name": "_id_gruppo",
          "type": "uint256"
        }
      ],
      "name": "getLike",
      "outputs": [
        {
          "internalType": "uint256",
          "name": "",
          "type": "uint256"
        }
      ],
      "stateMutability": "view",
      "type": "function"
    },
    {
      "inputs": [
        {
          "internalType": "uint256",
          "name": "_id_gruppo",
          "type": "uint256"
        }
      ],
      "name": "getPost",
      "outputs": [
        {
          "components": [
            {
              "internalType": "uint256",
              "name": "id_gruppo_post",
              "type": "uint256"
            },
            {
              "internalType": "uint256",
              "name": "id_post",
              "type": "uint256"
            },
            {
              "internalType": "string",
              "name": "titolo",
              "type": "string"
            },
            {
              "internalType": "string",
              "name": "descrizione",
              "type": "string"
            },
            {
              "internalType": "uint256",
              "name": "n_like",
              "type": "uint256"
            },
            {
              "internalType": "string",
              "name": "account",
              "type": "string"
            },
            {
              "internalType": "bool",
              "name": "rewarded",
              "type": "bool"
            },
            {
              "internalType": "address",
              "name": "_sender",
              "type": "address"
            }
          ],
          "internalType": "struct Amethyst.Post[]",
          "name": "",
          "type": "tuple[]"
        }
      ],
      "stateMutability": "view",
      "type": "function"
    },
    {
      "inputs": [],
      "name": "get_address",
      "outputs": [
        {
          "internalType": "address[]",
          "name": "",
          "type": "address[]"
        }
      ],
      "stateMutability": "view",
      "type": "function"
    },
    {
      "inputs": [
        {
          "internalType": "address",
          "name": "user",
          "type": "address"
        }
      ],
      "name": "get_nickname_address",
      "outputs": [
        {
          "internalType": "string",
          "name": "",
          "type": "string"
        }
      ],
      "stateMutability": "view",
      "type": "function"
    },
    {
      "inputs": [],
      "name": "get_utente",
      "outputs": [
        {
          "internalType": "string[]",
          "name": "",
          "type": "string[]"
        }
      ],
      "stateMutability": "view",
      "type": "function"
    },
    {
      "inputs": [
        {
          "internalType": "address",
          "name": "_utente",
          "type": "address"
        }
      ],
      "name": "get_utente_registrato",
      "outputs": [
        {
          "internalType": "bool",
          "name": "",
          "type": "bool"
        }
      ],
      "stateMutability": "view",
      "type": "function"
    },
    {
      "inputs": [
        {
          "internalType": "string",
          "name": "_newNickName",
          "type": "string"
        }
      ],
      "name": "modifyNickname",
      "outputs": [],
      "stateMutability": "nonpayable",
      "type": "function"
    }
  ],
  "bytecode": "0x608060405260006004556000600555600060065534801561001f57600080fd5b50604051614801380380614801833981810160405281019061004191906105b0565b80600360006101000a81548173ffffffffffffffffffffffffffffffffffffffff021916908373ffffffffffffffffffffffffffffffffffffffff1602179055506100df6040518060400160405280600581526020017f53706f72740000000000000000000000000000000000000000000000000000008152506040518060600160405280602781526020016147da6027913961049e60201b60201c565b61013c6040518060400160405280600e81526020017f50726f6772616d6d617a696f6e650000000000000000000000000000000000008152506040518060600160405280602781526020016147176027913961049e60201b60201c565b6101996040518060400160405280600681526020017f4d757369636100000000000000000000000000000000000000000000000000008152506040518060600160405280602281526020016147696022913961049e60201b60201c565b6102136040518060400160405280600681526020017f437563696e6100000000000000000000000000000000000000000000000000008152506040518060400160405280601a81526020017f52696365747465206520747275636368692063756c696e61726900000000000081525061049e60201b60201c565b6102706040518060400160405280600681526020017f56696167676900000000000000000000000000000000000000000000000000008152506040518060600160405280602281526020016147b86022913961049e60201b60201c565b6102ea6040518060400160405280600681526020017f43696e656d6100000000000000000000000000000000000000000000000000008152506040518060400160405280601b81526020017f46696c6d2c207365726965205456206520726563656e73696f6e69000000000081525061049e60201b60201c565b6103476040518060400160405280600581526020017f4c696272690000000000000000000000000000000000000000000000000000008152506040518060600160405280602d815260200161478b602d913961049e60201b60201c565b6103c16040518060400160405280600b81526020017f566964656f67696f6368690000000000000000000000000000000000000000008152506040518060400160405280602081526020017f547574746f2073756920766964656f67616d6573206520696c2067616d696e6781525061049e60201b60201c565b61041e6040518060400160405280600781526020017f4669746e657373000000000000000000000000000000000000000000000000008152506040518060600160405280602b815260200161473e602b913961049e60201b60201c565b6104986040518060400160405280600a81526020017f5465636e6f6c6f676961000000000000000000000000000000000000000000008152506040518060400160405280601b81526020017f556c74696d65206e6f76697461272065207472656e642074656368000000000081525061049e60201b60201c565b50610976565b60006040518060a001604052806004548152602001848152602001838152602001600081526020016000815250905080600760006004548152602001908152602001600020600082015181600001556020820151816001019081610502919061082d565b506040820151816002019081610518919061082d565b506060820151816003015560808201518160040155905050600460008154809291906105439061092e565b9190505550505050565b600080fd5b600073ffffffffffffffffffffffffffffffffffffffff82169050919050565b600061057d82610552565b9050919050565b61058d81610572565b811461059857600080fd5b50565b6000815190506105aa81610584565b92915050565b6000602082840312156105c6576105c561054d565b5b60006105d48482850161059b565b91505092915050565b600081519050919050565b7f4e487b7100000000000000000000000000000000000000000000000000000000600052604160045260246000fd5b7f4e487b7100000000000000000000000000000000000000000000000000000000600052602260045260246000fd5b6000600282049050600182168061065e57607f821691505b60208210810361067157610670610617565b5b50919050565b60008190508160005260206000209050919050565b60006020601f8301049050919050565b600082821b905092915050565b6000600883026106d97fffffffffffffffffffffffffffffffffffffffffffffffffffffffffffffffff8261069c565b6106e3868361069c565b95508019841693508086168417925050509392505050565b6000819050919050565b6000819050919050565b600061072a610725610720846106fb565b610705565b6106fb565b9050919050565b6000819050919050565b6107448361070f565b61075861075082610731565b8484546106a9565b825550505050565b600090565b61076d610760565b61077881848461073b565b505050565b5b8181101561079c57610791600082610765565b60018101905061077e565b5050565b601f8211156107e1576107b281610677565b6107bb8461068c565b810160208510156107ca578190505b6107de6107d68561068c565b83018261077d565b50505b505050565b600082821c905092915050565b6000610804600019846008026107e6565b1980831691505092915050565b600061081d83836107f3565b9150826002028217905092915050565b610836826105dd565b67ffffffffffffffff81111561084f5761084e6105e8565b5b6108598254610646565b6108648282856107a0565b600060209050601f8311600181146108975760008415610885578287015190505b61088f8582610811565b8655506108f7565b601f1984166108a586610677565b60005b828110156108cd578489015182556001820191506020850194506020810190506108a8565b868310156108ea57848901516108e6601f8916826107f3565b8355505b6001600288020188555050505b505050505050565b7f4e487b7100000000000000000000000000000000000000000000000000000000600052601160045260246000fd5b6000610939826106fb565b91507fffffffffffffffffffffffffffffffffffffffffffffffffffffffffffffffff820361096b5761096a6108ff565b5b600182019050919050565b613d92806109856000396000f3fe608060405234801561001057600080fd5b50600436106101165760003560e01c806341287213116100a257806362b9a3941161007157806362b9a394146102df57806398a0ed561461030f578063a64bc9f01461033f578063bf9d62511461035b578063f135fbd51461037757610116565b806341287213146102475780634e9b473914610277578063581e27e61461029357806359e0f1d5146102c357610116565b806330561100116100e957806330561100146101a157806336c72d7d146101bf578063378a35cd146101dd5780633db8c102146101f957806340731c241461021757610116565b80630131222f1461011b578063094cd5ee146101395780630e9c35b3146101555780632d74271714610171575b600080fd5b6101236103a7565b6040516101309190612911565b60405180910390f35b610153600480360381019061014e919061297d565b610435565b005b61016f600480360381019061016a9190612af0565b61066b565b005b61018b6004803603810190610186919061297d565b6107de565b6040516101989190612b5b565b60405180910390f35b6101a96108dd565b6040516101b69190612d9f565b60405180910390f35b6101c7610bdd565b6040516101d49190612e83565b60405180910390f35b6101f760048036038101906101f2919061297d565b610d81565b005b6102016111f6565b60405161020e9190612fe4565b60405180910390f35b610231600480360381019061022c919061297d565b6113f2565b60405161023e9190612d9f565b60405180910390f35b610261600480360381019061025c9190613032565b6117bc565b60405161026e919061306e565b60405180910390f35b610291600480360381019061028c9190613089565b611812565b005b6102ad60048036038101906102a89190613032565b611ac4565b6040516102ba919061315e565b60405180910390f35b6102dd60048036038101906102d89190613180565b611c23565b005b6102f960048036038101906102f49190613032565b611dfd565b604051610306919061315e565b60405180910390f35b6103296004803603810190610324919061297d565b611ed6565b60405161033691906132e2565b60405180910390f35b61035960048036038101906103549190613304565b612189565b005b61037560048036038101906103709190613180565b6124ca565b005b610391600480360381019061038c919061297d565b6125a8565b60405161039e91906133dd565b60405180910390f35b6060600280548060200260200160405190810160405280929190818152602001828054801561042b57602002820191906000526020600020905b8160009054906101000a900473ffffffffffffffffffffffffffffffffffffffff1673ffffffffffffffffffffffffffffffffffffffff16815260200190600101908083116103e1575b5050505050905090565b803373ffffffffffffffffffffffffffffffffffffffff166008600083815260200190815260200160002060060160019054906101000a900473ffffffffffffffffffffffffffffffffffffffff1673ffffffffffffffffffffffffffffffffffffffff16146104da576040517f08c379a00000000000000000000000000000000000000000000000000000000081526004016104d190613471565b60405180910390fd5b81600081101580156104ee57506005548111155b61052d576040517f08c379a0000000000000000000000000000000000000000000000000000000008152600401610524906134dd565b60405180910390fd5b600060086000858152602001908152602001600020600001549050600060086000868152602001908152602001600020600401549050806007600084815260200190815260200160002060030154610585919061352c565b60076000848152602001908152602001600020600301819055506007600083815260200190815260200160002060040160008154809291906105c690613560565b91905055506008600086815260200190815260200160002060008082016000905560018201600090556002820160006105ff9190612717565b60038201600061060f9190612717565b60048201600090556005820160006106279190612717565b6006820160006101000a81549060ff02191690556006820160016101000a81549073ffffffffffffffffffffffffffffffffffffffff021916905550505050505050565b600160003373ffffffffffffffffffffffffffffffffffffffff1673ffffffffffffffffffffffffffffffffffffffff16815260200190815260200160002060009054906101000a900460ff166106f7576040517f08c379a00000000000000000000000000000000000000000000000000000000081526004016106ee906135d5565b60405180910390fd5b816000811015801561070b57506005548111155b61074a576040517f08c379a0000000000000000000000000000000000000000000000000000000008152600401610741906134dd565b60405180910390fd5b6000604051806060016040528085815260200184815260200161076c33611dfd565b8152509050806009600060065481526020019081526020016000206000820151816000015560208201518160010190816107a69190613801565b5060408201518160020190816107bc9190613801565b50905050600660008154809291906107d3906138d3565b919050555050505050565b6000600160003373ffffffffffffffffffffffffffffffffffffffff1673ffffffffffffffffffffffffffffffffffffffff16815260200190815260200160002060009054906101000a900460ff1661086c576040517f08c379a0000000000000000000000000000000000000000000000000000000008152600401610863906135d5565b60405180910390fd5b816009811115801561087f575060008110155b6108be576040517f08c379a00000000000000000000000000000000000000000000000000000000081526004016108b590613967565b60405180910390fd5b6007600084815260200190815260200160002060030154915050919050565b6060600060055467ffffffffffffffff8111156108fd576108fc6129c5565b5b60405190808252806020026020018201604052801561093657816020015b610923612757565b81526020019060019003908161091b5790505b50905060005b600554811015610bd5576008600082815260200190815260200160002060405180610100016040529081600082015481526020016001820154815260200160028201805461098990613624565b80601f01602080910402602001604051908101604052809291908181526020018280546109b590613624565b8015610a025780601f106109d757610100808354040283529160200191610a02565b820191906000526020600020905b8154815290600101906020018083116109e557829003601f168201915b50505050508152602001600382018054610a1b90613624565b80601f0160208091040260200160405190810160405280929190818152602001828054610a4790613624565b8015610a945780601f10610a6957610100808354040283529160200191610a94565b820191906000526020600020905b815481529060010190602001808311610a7757829003601f168201915b5050505050815260200160048201548152602001600582018054610ab790613624565b80601f0160208091040260200160405190810160405280929190818152602001828054610ae390613624565b8015610b305780601f10610b0557610100808354040283529160200191610b30565b820191906000526020600020905b815481529060010190602001808311610b1357829003601f168201915b505050505081526020016006820160009054906101000a900460ff161515151581526020016006820160019054906101000a900473ffffffffffffffffffffffffffffffffffffffff1673ffffffffffffffffffffffffffffffffffffffff1673ffffffffffffffffffffffffffffffffffffffff1681525050828281518110610bbd57610bbc613987565b5b6020026020010181905250808060010191505061093c565b508091505090565b6060600060028054905067ffffffffffffffff811115610c0057610bff6129c5565b5b604051908082528060200260200182016040528015610c3357816020015b6060815260200190600190039081610c1e5790505b50905060005b600280549050811015610d795760008060028381548110610c5d57610c5c613987565b5b9060005260206000200160009054906101000a900473ffffffffffffffffffffffffffffffffffffffff1673ffffffffffffffffffffffffffffffffffffffff1673ffffffffffffffffffffffffffffffffffffffff1681526020019081526020016000206001018054610cd090613624565b80601f0160208091040260200160405190810160405280929190818152602001828054610cfc90613624565b8015610d495780601f10610d1e57610100808354040283529160200191610d49565b820191906000526020600020905b815481529060010190602001808311610d2c57829003601f168201915b5050505050828281518110610d6157610d60613987565b5b60200260200101819052508080600101915050610c39565b819250505090565b600160003373ffffffffffffffffffffffffffffffffffffffff1673ffffffffffffffffffffffffffffffffffffffff16815260200190815260200160002060009054906101000a900460ff16610e0d576040517f08c379a0000000000000000000000000000000000000000000000000000000008152600401610e04906135d5565b60405180910390fd5b80600a60003373ffffffffffffffffffffffffffffffffffffffff1673ffffffffffffffffffffffffffffffffffffffff168152602001908152602001600020600082815260200190815260200160002060009054906101000a900460ff1615610eac576040517f08c379a0000000000000000000000000000000000000000000000000000000008152600401610ea390613a28565b60405180910390fd5b8160008110158015610ec057506005548111155b610eff576040517f08c379a0000000000000000000000000000000000000000000000000000000008152600401610ef6906134dd565b60405180910390fd5b600860008481526020019081526020016000206004016000815480929190610f26906138d3565b9190505550600060086000858152602001908152602001600020600001549050600760008281526020019081526020016000206003016000815480929190610f6d906138d3565b91905055506001600a60003373ffffffffffffffffffffffffffffffffffffffff1673ffffffffffffffffffffffffffffffffffffffff168152602001908152602001600020600086815260200190815260200160002060006101000a81548160ff02191690831515021790555060006040518060c001604052806003815260200160058152602001600a815260200160328152602001606481526020016101f4815250905060006040518060c0016040528060058152602001600a8152602001600f815260200160148152602001601e81526020016032815250905060005b60068110156111ed5782816006811061106957611068613987565b5b602002015160086000898152602001908152602001600020600401541480156110c15750600b6000888152602001908152602001600020600082815260200190815260200160002060009054906101000a900460ff16155b156111e057600360009054906101000a900473ffffffffffffffffffffffffffffffffffffffff1673ffffffffffffffffffffffffffffffffffffffff166340c10f19600860008a815260200190815260200160002060060160019054906101000a900473ffffffffffffffffffffffffffffffffffffffff1684846006811061114e5761114d613987565b5b60200201516040518363ffffffff1660e01b8152600401611170929190613a57565b600060405180830381600087803b15801561118a57600080fd5b505af115801561119e573d6000803e3d6000fd5b505050506001600b6000898152602001908152602001600020600083815260200190815260200160002060006101000a81548160ff0219169083151502179055505b808060010191505061104d565b50505050505050565b6060600060045467ffffffffffffffff811115611216576112156129c5565b5b60405190808252806020026020018201604052801561124f57816020015b61123c6127b4565b8152602001906001900390816112345790505b50905060005b6004548110156113ea57600760008281526020019081526020016000206040518060a00160405290816000820154815260200160018201805461129790613624565b80601f01602080910402602001604051908101604052809291908181526020018280546112c390613624565b80156113105780601f106112e557610100808354040283529160200191611310565b820191906000526020600020905b8154815290600101906020018083116112f357829003601f168201915b5050505050815260200160028201805461132990613624565b80601f016020809104026020016040519081016040528092919081815260200182805461135590613624565b80156113a25780601f10611377576101008083540402835291602001916113a2565b820191906000526020600020905b81548152906001019060200180831161138557829003601f168201915b50505050508152602001600382015481526020016004820154815250508282815181106113d2576113d1613987565b5b60200260200101819052508080600101915050611255565b508091505090565b60608160098111158015611407575060008110155b611446576040517f08c379a000000000000000000000000000000000000000000000000000000000815260040161143d90613967565b60405180910390fd5b6000805b60055481101561148d578460086000838152602001908152602001600020600001540361148057818061147c906138d3565b9250505b808060010191505061144a565b5060008167ffffffffffffffff8111156114aa576114a96129c5565b5b6040519080825280602002602001820160405280156114e357816020015b6114d0612757565b8152602001906001900390816114c85790505b5090506000805b6005548110156117af57866008600083815260200190815260200160002060000154036117a2576008600082815260200190815260200160002060405180610100016040529081600082015481526020016001820154815260200160028201805461155490613624565b80601f016020809104026020016040519081016040528092919081815260200182805461158090613624565b80156115cd5780601f106115a2576101008083540402835291602001916115cd565b820191906000526020600020905b8154815290600101906020018083116115b057829003601f168201915b505050505081526020016003820180546115e690613624565b80601f016020809104026020016040519081016040528092919081815260200182805461161290613624565b801561165f5780601f106116345761010080835404028352916020019161165f565b820191906000526020600020905b81548152906001019060200180831161164257829003601f168201915b505050505081526020016004820154815260200160058201805461168290613624565b80601f01602080910402602001604051908101604052809291908181526020018280546116ae90613624565b80156116fb5780601f106116d0576101008083540402835291602001916116fb565b820191906000526020600020905b8154815290600101906020018083116116de57829003601f168201915b505050505081526020016006820160009054906101000a900460ff161515151581526020016006820160019054906101000a900473ffffffffffffffffffffffffffffffffffffffff1673ffffffffffffffffffffffffffffffffffffffff1673ffffffffffffffffffffffffffffffffffffffff168152505083838151811061178857611787613987565b5b6020026020010181905250818061179e906138d3565b9250505b80806001019150506114ea565b5081945050505050919050565b6000600160008373ffffffffffffffffffffffffffffffffffffffff1673ffffffffffffffffffffffffffffffffffffffff16815260200190815260200160002060009054906101000a900460ff169050919050565b600160003373ffffffffffffffffffffffffffffffffffffffff1673ffffffffffffffffffffffffffffffffffffffff16815260200190815260200160002060009054906101000a900460ff1661189e576040517f08c379a0000000000000000000000000000000000000000000000000000000008152600401611895906135d5565b60405180910390fd5b82600981111580156118b1575060008110155b6118f0576040517f08c379a00000000000000000000000000000000000000000000000000000000081526004016118e790613967565b60405180910390fd5b82604181511115611936576040517f08c379a000000000000000000000000000000000000000000000000000000000815260040161192d90613af2565b60405180910390fd5b600060405180610100016040528087815260200160055481526020018681526020018581526020016000815260200161196e33611dfd565b81526020016000151581526020013373ffffffffffffffffffffffffffffffffffffffff1681525090506007600087815260200190815260200160002060040160008154809291906119bf906138d3565b91905055508060086000600554815260200190815260200160002060008201518160000155602082015181600101556040820151816002019081611a039190613801565b506060820151816003019081611a199190613801565b506080820151816004015560a0820151816005019081611a399190613801565b5060c08201518160060160006101000a81548160ff02191690831515021790555060e08201518160060160016101000a81548173ffffffffffffffffffffffffffffffffffffffff021916908373ffffffffffffffffffffffffffffffffffffffff16021790555090505060056000815480929190611ab7906138d3565b9190505550505050505050565b6060600160008373ffffffffffffffffffffffffffffffffffffffff1673ffffffffffffffffffffffffffffffffffffffff16815260200190815260200160002060009054906101000a900460ff16611b52576040517f08c379a0000000000000000000000000000000000000000000000000000000008152600401611b4990613b5e565b60405180910390fd5b6000808373ffffffffffffffffffffffffffffffffffffffff1673ffffffffffffffffffffffffffffffffffffffff1681526020019081526020016000206002018054611b9e90613624565b80601f0160208091040260200160405190810160405280929190818152602001828054611bca90613624565b8015611c175780601f10611bec57610100808354040283529160200191611c17565b820191906000526020600020905b815481529060010190602001808311611bfa57829003601f168201915b50505050509050919050565b8060005b600280549050811015611d1d57818051906020012060008060028481548110611c5357611c52613987565b5b9060005260206000200160009054906101000a900473ffffffffffffffffffffffffffffffffffffffff1673ffffffffffffffffffffffffffffffffffffffff1673ffffffffffffffffffffffffffffffffffffffff168152602001908152602001600020600101604051611cc89190613c21565b604051809103902003611d10576040517f08c379a0000000000000000000000000000000000000000000000000000000008152600401611d0790613caa565b60405180910390fd5b8080600101915050611c27565b600160003373ffffffffffffffffffffffffffffffffffffffff1673ffffffffffffffffffffffffffffffffffffffff16815260200190815260200160002060009054906101000a900460ff16611da9576040517f08c379a0000000000000000000000000000000000000000000000000000000008152600401611da090613b5e565b60405180910390fd5b826000803373ffffffffffffffffffffffffffffffffffffffff1673ffffffffffffffffffffffffffffffffffffffff1681526020019081526020016000206001019081611df79190613801565b50505050565b606060008060008473ffffffffffffffffffffffffffffffffffffffff1673ffffffffffffffffffffffffffffffffffffffff1681526020019081526020016000206001018054611e4d90613624565b80601f0160208091040260200160405190810160405280929190818152602001828054611e7990613624565b8015611ec65780601f10611e9b57610100808354040283529160200191611ec6565b820191906000526020600020905b815481529060010190602001808311611ea957829003601f168201915b5050505050905080915050919050565b60608160008110158015611eec57506005548111155b611f2b576040517f08c379a0000000000000000000000000000000000000000000000000000000008152600401611f22906134dd565b60405180910390fd5b6000805b600654811015611f725784600960008381526020019081526020016000206000015403611f65578180611f61906138d3565b9250505b8080600101915050611f2f565b5060008167ffffffffffffffff811115611f8f57611f8e6129c5565b5b604051908082528060200260200182016040528015611fc857816020015b611fb56127e3565b815260200190600190039081611fad5790505b5090506000805b60065481101561217c578660096000838152602001908152602001600020600001540361216f57600960008281526020019081526020016000206040518060600160405290816000820154815260200160018201805461202e90613624565b80601f016020809104026020016040519081016040528092919081815260200182805461205a90613624565b80156120a75780601f1061207c576101008083540402835291602001916120a7565b820191906000526020600020905b81548152906001019060200180831161208a57829003601f168201915b505050505081526020016002820180546120c090613624565b80601f01602080910402602001604051908101604052809291908181526020018280546120ec90613624565b80156121395780601f1061210e57610100808354040283529160200191612139565b820191906000526020600020905b81548152906001019060200180831161211c57829003601f168201915b50505050508152505083838151811061215557612154613987565b5b6020026020010181905250818061216b906138d3565b9250505b8080600101915050611fcf565b5081945050505050919050565b600160003373ffffffffffffffffffffffffffffffffffffffff1673ffffffffffffffffffffffffffffffffffffffff16815260200190815260200160002060009054906101000a900460ff1615612216576040517f08c379a000000000000000000000000000000000000000000000000000000000815260040161220d90613d3c565b60405180910390fd5b8060005b6002805490508110156123105781805190602001206000806002848154811061224657612245613987565b5b9060005260206000200160009054906101000a900473ffffffffffffffffffffffffffffffffffffffff1673ffffffffffffffffffffffffffffffffffffffff1673ffffffffffffffffffffffffffffffffffffffff1681526020019081526020016000206001016040516122bb9190613c21565b604051809103902003612303576040517f08c379a00000000000000000000000000000000000000000000000000000000081526004016122fa90613caa565b60405180910390fd5b808060010191505061221a565b600060405180606001604052808673ffffffffffffffffffffffffffffffffffffffff168152602001858152602001604051806020016040528060008152508152509050806000808773ffffffffffffffffffffffffffffffffffffffff1673ffffffffffffffffffffffffffffffffffffffff16815260200190815260200160002060008201518160000160006101000a81548173ffffffffffffffffffffffffffffffffffffffff021916908373ffffffffffffffffffffffffffffffffffffffff16021790555060208201518160010190816123ef9190613801565b5060408201518160020190816124059190613801565b509050506002859080600181540180825580915050600190039060005260206000200160009091909190916101000a81548173ffffffffffffffffffffffffffffffffffffffff021916908373ffffffffffffffffffffffffffffffffffffffff16021790555060018060008773ffffffffffffffffffffffffffffffffffffffff1673ffffffffffffffffffffffffffffffffffffffff16815260200190815260200160002060006101000a81548160ff0219169083151502179055505050505050565b600160003373ffffffffffffffffffffffffffffffffffffffff1673ffffffffffffffffffffffffffffffffffffffff16815260200190815260200160002060009054906101000a900460ff16612556576040517f08c379a000000000000000000000000000000000000000000000000000000000815260040161254d90613b5e565b60405180910390fd5b806000803373ffffffffffffffffffffffffffffffffffffffff1673ffffffffffffffffffffffffffffffffffffffff16815260200190815260200160002060020190816125a49190613801565b5050565b6125b06127b4565b600760008381526020019081526020016000206040518060a0016040529081600082015481526020016001820180546125e890613624565b80601f016020809104026020016040519081016040528092919081815260200182805461261490613624565b80156126615780601f1061263657610100808354040283529160200191612661565b820191906000526020600020905b81548152906001019060200180831161264457829003601f168201915b5050505050815260200160028201805461267a90613624565b80601f01602080910402602001604051908101604052809291908181526020018280546126a690613624565b80156126f35780601f106126c8576101008083540402835291602001916126f3565b820191906000526020600020905b8154815290600101906020018083116126d657829003601f168201915b50505050508152602001600382015481526020016004820154815250509050919050565b50805461272390613624565b6000825580601f106127355750612754565b601f0160209004906000526020600020908101906127539190612804565b5b50565b604051806101000160405280600081526020016000815260200160608152602001606081526020016000815260200160608152602001600015158152602001600073ffffffffffffffffffffffffffffffffffffffff1681525090565b6040518060a0016040528060008152602001606081526020016060815260200160008152602001600081525090565b60405180606001604052806000815260200160608152602001606081525090565b5b8082111561281d576000816000905550600101612805565b5090565b600081519050919050565b600082825260208201905092915050565b6000819050602082019050919050565b600073ffffffffffffffffffffffffffffffffffffffff82169050919050565b60006128788261284d565b9050919050565b6128888161286d565b82525050565b600061289a838361287f565b60208301905092915050565b6000602082019050919050565b60006128be82612821565b6128c8818561282c565b93506128d38361283d565b8060005b838110156129045781516128eb888261288e565b97506128f6836128a6565b9250506001810190506128d7565b5085935050505092915050565b6000602082019050818103600083015261292b81846128b3565b905092915050565b6000604051905090565b600080fd5b600080fd5b6000819050919050565b61295a81612947565b811461296557600080fd5b50565b60008135905061297781612951565b92915050565b6000602082840312156129935761299261293d565b5b60006129a184828501612968565b91505092915050565b600080fd5b600080fd5b6000601f19601f8301169050919050565b7f4e487b7100000000000000000000000000000000000000000000000000000000600052604160045260246000fd5b6129fd826129b4565b810181811067ffffffffffffffff82111715612a1c57612a1b6129c5565b5b80604052505050565b6000612a2f612933565b9050612a3b82826129f4565b919050565b600067ffffffffffffffff821115612a5b57612a5a6129c5565b5b612a64826129b4565b9050602081019050919050565b82818337600083830152505050565b6000612a93612a8e84612a40565b612a25565b905082815260208101848484011115612aaf57612aae6129af565b5b612aba848285612a71565b509392505050565b600082601f830112612ad757612ad66129aa565b5b8135612ae7848260208601612a80565b91505092915050565b60008060408385031215612b0757612b0661293d565b5b6000612b1585828601612968565b925050602083013567ffffffffffffffff811115612b3657612b35612942565b5b612b4285828601612ac2565b9150509250929050565b612b5581612947565b82525050565b6000602082019050612b706000830184612b4c565b92915050565b600081519050919050565b600082825260208201905092915050565b6000819050602082019050919050565b612bab81612947565b82525050565b600081519050919050565b600082825260208201905092915050565b60005b83811015612beb578082015181840152602081019050612bd0565b60008484015250505050565b6000612c0282612bb1565b612c0c8185612bbc565b9350612c1c818560208601612bcd565b612c25816129b4565b840191505092915050565b60008115159050919050565b612c4581612c30565b82525050565b600061010083016000830151612c646000860182612ba2565b506020830151612c776020860182612ba2565b5060408301518482036040860152612c8f8282612bf7565b91505060608301518482036060860152612ca98282612bf7565b9150506080830151612cbe6080860182612ba2565b5060a083015184820360a0860152612cd68282612bf7565b91505060c0830151612ceb60c0860182612c3c565b5060e0830151612cfe60e086018261287f565b508091505092915050565b6000612d158383612c4b565b905092915050565b6000602082019050919050565b6000612d3582612b76565b612d3f8185612b81565b935083602082028501612d5185612b92565b8060005b85811015612d8d5784840389528151612d6e8582612d09565b9450612d7983612d1d565b925060208a01995050600181019050612d55565b50829750879550505050505092915050565b60006020820190508181036000830152612db98184612d2a565b905092915050565b600081519050919050565b600082825260208201905092915050565b6000819050602082019050919050565b6000612df98383612bf7565b905092915050565b6000602082019050919050565b6000612e1982612dc1565b612e238185612dcc565b935083602082028501612e3585612ddd565b8060005b85811015612e715784840389528151612e528582612ded565b9450612e5d83612e01565b925060208a01995050600181019050612e39565b50829750879550505050505092915050565b60006020820190508181036000830152612e9d8184612e0e565b905092915050565b600081519050919050565b600082825260208201905092915050565b6000819050602082019050919050565b600060a083016000830151612ee96000860182612ba2565b5060208301518482036020860152612f018282612bf7565b91505060408301518482036040860152612f1b8282612bf7565b9150506060830151612f306060860182612ba2565b506080830151612f436080860182612ba2565b508091505092915050565b6000612f5a8383612ed1565b905092915050565b6000602082019050919050565b6000612f7a82612ea5565b612f848185612eb0565b935083602082028501612f9685612ec1565b8060005b85811015612fd25784840389528151612fb38582612f4e565b9450612fbe83612f62565b925060208a01995050600181019050612f9a565b50829750879550505050505092915050565b60006020820190508181036000830152612ffe8184612f6f565b905092915050565b61300f8161286d565b811461301a57600080fd5b50565b60008135905061302c81613006565b92915050565b6000602082840312156130485761304761293d565b5b60006130568482850161301d565b91505092915050565b61306881612c30565b82525050565b6000602082019050613083600083018461305f565b92915050565b6000806000606084860312156130a2576130a161293d565b5b60006130b086828701612968565b935050602084013567ffffffffffffffff8111156130d1576130d0612942565b5b6130dd86828701612ac2565b925050604084013567ffffffffffffffff8111156130fe576130fd612942565b5b61310a86828701612ac2565b9150509250925092565b600082825260208201905092915050565b600061313082612bb1565b61313a8185613114565b935061314a818560208601612bcd565b613153816129b4565b840191505092915050565b600060208201905081810360008301526131788184613125565b905092915050565b6000602082840312156131965761319561293d565b5b600082013567ffffffffffffffff8111156131b4576131b3612942565b5b6131c084828501612ac2565b91505092915050565b600081519050919050565b600082825260208201905092915050565b6000819050602082019050919050565b600060608301600083015161320d6000860182612ba2565b50602083015184820360208601526132258282612bf7565b9150506040830151848203604086015261323f8282612bf7565b9150508091505092915050565b600061325883836131f5565b905092915050565b6000602082019050919050565b6000613278826131c9565b61328281856131d4565b935083602082028501613294856131e5565b8060005b858110156132d057848403895281516132b1858261324c565b94506132bc83613260565b925060208a01995050600181019050613298565b50829750879550505050505092915050565b600060208201905081810360008301526132fc818461326d565b905092915050565b6000806040838503121561331b5761331a61293d565b5b60006133298582860161301d565b925050602083013567ffffffffffffffff81111561334a57613349612942565b5b61335685828601612ac2565b9150509250929050565b600060a0830160008301516133786000860182612ba2565b50602083015184820360208601526133908282612bf7565b915050604083015184820360408601526133aa8282612bf7565b91505060608301516133bf6060860182612ba2565b5060808301516133d26080860182612ba2565b508091505092915050565b600060208201905081810360008301526133f78184613360565b905092915050565b7f536f6c6f206c206175746f72652064656c20706f73742070756f20656c696d6960008201527f6e61726c6f000000000000000000000000000000000000000000000000000000602082015250565b600061345b602583613114565b9150613466826133ff565b604082019050919050565b6000602082019050818103600083015261348a8161344e565b9050919050565b7f496c20706f7374206e6f6e206573697374650000000000000000000000000000600082015250565b60006134c7601283613114565b91506134d282613491565b602082019050919050565b600060208201905081810360008301526134f6816134ba565b9050919050565b7f4e487b7100000000000000000000000000000000000000000000000000000000600052601160045260246000fd5b600061353782612947565b915061354283612947565b925082820390508181111561355a576135596134fd565b5b92915050565b600061356b82612947565b91506000820361357e5761357d6134fd565b5b600182039050919050565b7f4163636f756e74206e6f6e207265676973747261746f00000000000000000000600082015250565b60006135bf601683613114565b91506135ca82613589565b602082019050919050565b600060208201905081810360008301526135ee816135b2565b9050919050565b7f4e487b7100000000000000000000000000000000000000000000000000000000600052602260045260246000fd5b6000600282049050600182168061363c57607f821691505b60208210810361364f5761364e6135f5565b5b50919050565b60008190508160005260206000209050919050565b60006020601f8301049050919050565b600082821b905092915050565b6000600883026136b77fffffffffffffffffffffffffffffffffffffffffffffffffffffffffffffffff8261367a565b6136c1868361367a565b95508019841693508086168417925050509392505050565b6000819050919050565b60006136fe6136f96136f484612947565b6136d9565b612947565b9050919050565b6000819050919050565b613718836136e3565b61372c61372482613705565b848454613687565b825550505050565b600090565b613741613734565b61374c81848461370f565b505050565b5b8181101561377057613765600082613739565b600181019050613752565b5050565b601f8211156137b55761378681613655565b61378f8461366a565b8101602085101561379e578190505b6137b26137aa8561366a565b830182613751565b50505b505050565b600082821c905092915050565b60006137d8600019846008026137ba565b1980831691505092915050565b60006137f183836137c7565b9150826002028217905092915050565b61380a82612bb1565b67ffffffffffffffff811115613823576138226129c5565b5b61382d8254613624565b613838828285613774565b600060209050601f83116001811461386b5760008415613859578287015190505b61386385826137e5565b8655506138cb565b601f19841661387986613655565b60005b828110156138a15784890151825560018201915060208501945060208101905061387c565b868310156138be57848901516138ba601f8916826137c7565b8355505b6001600288020188555050505b505050505050565b60006138de82612947565b91507fffffffffffffffffffffffffffffffffffffffffffffffffffffffffffffffff82036139105761390f6134fd565b5b600182019050919050565b7f496c2047727570706f206e6f6e20657369737465203a28000000000000000000600082015250565b6000613951601783613114565b915061395c8261391b565b602082019050919050565b6000602082019050818103600083015261398081613944565b9050919050565b7f4e487b7100000000000000000000000000000000000000000000000000000000600052603260045260246000fd5b7f4861692067696127206d6573736f206c696b6520612071756573746f20706f7360008201527f742e000000000000000000000000000000000000000000000000000000000000602082015250565b6000613a12602283613114565b9150613a1d826139b6565b604082019050919050565b60006020820190508181036000830152613a4181613a05565b9050919050565b613a518161286d565b82525050565b6000604082019050613a6c6000830185613a48565b613a796020830184612b4c565b9392505050565b7f496c207469746f6c6f20737570657261206c61206c756e6768657a7a61206d6160008201527f7373696d61206469203635206361726174746572690000000000000000000000602082015250565b6000613adc603583613114565b9150613ae782613a80565b604082019050919050565b60006020820190508181036000830152613b0b81613acf565b9050919050565b7f4163636f756e74206e6f6e206573697374656e74652e00000000000000000000600082015250565b6000613b48601683613114565b9150613b5382613b12565b602082019050919050565b60006020820190508181036000830152613b7781613b3b565b9050919050565b600081905092915050565b60008190508160005260206000209050919050565b60008154613bab81613624565b613bb58186613b7e565b94506001821660008114613bd05760018114613be557613c18565b60ff1983168652811515820286019350613c18565b613bee85613b89565b60005b83811015613c1057815481890152600182019150602081019050613bf1565b838801955050505b50505092915050565b6000613c2d8284613b9e565b915081905092915050565b7f4d692064697370696163652c206e69636b5f6e616d65206573697374656e746560008201527f203a280000000000000000000000000000000000000000000000000000000000602082015250565b6000613c94602383613114565b9150613c9f82613c38565b604082019050919050565b60006020820190508181036000830152613cc381613c87565b9050919050565b7f4c276163636f756e74206573697374652c20656666657474756120696c206c6f60008201527f67696e203a280000000000000000000000000000000000000000000000000000602082015250565b6000613d26602683613114565b9150613d3182613cca565b604082019050919050565b60006020820190508181036000830152613d5581613d19565b905091905056fea26469706673582212208d38133fdd2c8b8978077a9c39421a19186c8c58797dd371b3681a55984d36af64736f6c634300081c003354656d61746963686520646920636f64696e672065207376696c7570706f20736f667477617265416c6c656e616d656e74692c206469657465206520636f6e7369676c6920706572206c612073616c757465436f6e646976696469206c65207475652070617373696f6e69206d75736963616c6944697363757373696f6e6920737520726f6d616e7a692065206c65747475726520696e746572657373616e746944657374696e617a696f6e69206520636f6e7369676c69206469207669616767696f44697363757373696f6e692073752073706f727420652061747469766974612720666973696361",
  "linkReferences": {},
  "deployedLinkReferences": {}
}