{
  "_format": "hh-sol-artifact-1",
  "contractName": "PurpleCoin",
  "sourceName": "contracts/Purplecoin.sol",
  "abi": [
    {
      "inputs": [],
      "stateMutability": "nonpayable",
      "type": "constructor"
    },
    {
      "inputs": [
        {
          "internalType": "address",
          "name": "spender",
          "type": "address"
        },
        {
          "internalType": "uint256",
          "name": "allowance",
          "type": "uint256"
        },
        {
          "internalType": "uint256",
          "name": "needed",
          "type": "uint256"
        }
      ],
      "name": "ERC20InsufficientAllowance",
      "type": "error"
    },
    {
      "inputs": [
        {
          "internalType": "address",
          "name": "sender",
          "type": "address"
        },
        {
          "internalType": "uint256",
          "name": "balance",
          "type": "uint256"
        },
        {
          "internalType": "uint256",
          "name": "needed",
          "type": "uint256"
        }
      ],
      "name": "ERC20InsufficientBalance",
      "type": "error"
    },
    {
      "inputs": [
        {
          "internalType": "address",
          "name": "approver",
          "type": "address"
        }
      ],
      "name": "ERC20InvalidApprover",
      "type": "error"
    },
    {
      "inputs": [
        {
          "internalType": "address",
          "name": "receiver",
          "type": "address"
        }
      ],
      "name": "ERC20InvalidReceiver",
      "type": "error"
    },
    {
      "inputs": [
        {
          "internalType": "address",
          "name": "sender",
          "type": "address"
        }
      ],
      "name": "ERC20InvalidSender",
      "type": "error"
    },
    {
      "inputs": [
        {
          "internalType": "address",
          "name": "spender",
          "type": "address"
        }
      ],
      "name": "ERC20InvalidSpender",
      "type": "error"
    },
    {
      "anonymous": false,
      "inputs": [
        {
          "indexed": true,
          "internalType": "address",
          "name": "owner",
          "type": "address"
        },
        {
          "indexed": true,
          "internalType": "address",
          "name": "spender",
          "type": "address"
        },
        {
          "indexed": false,
          "internalType": "uint256",
          "name": "value",
          "type": "uint256"
        }
      ],
      "name": "Approval",
      "type": "event"
    },
    {
      "anonymous": false,
      "inputs": [
        {
          "indexed": true,
          "internalType": "address",
          "name": "from",
          "type": "address"
        },
        {
          "indexed": true,
          "internalType": "address",
          "name": "to",
          "type": "address"
        },
        {
          "indexed": false,
          "internalType": "uint256",
          "name": "value",
          "type": "uint256"
        }
      ],
      "name": "Transfer",
      "type": "event"
    },
    {
      "inputs": [
        {
          "internalType": "address",
          "name": "owner",
          "type": "address"
        },
        {
          "internalType": "address",
          "name": "spender",
          "type": "address"
        }
      ],
      "name": "allowance",
      "outputs": [
        {
          "internalType": "uint256",
          "name": "",
          "type": "uint256"
        }
      ],
      "stateMutability": "view",
      "type": "function"
    },
    {
      "inputs": [
        {
          "internalType": "address",
          "name": "spender",
          "type": "address"
        },
        {
          "internalType": "uint256",
          "name": "value",
          "type": "uint256"
        }
      ],
      "name": "approve",
      "outputs": [
        {
          "internalType": "bool",
          "name": "",
          "type": "bool"
        }
      ],
      "stateMutability": "nonpayable",
      "type": "function"
    },
    {
      "inputs": [
        {
          "internalType": "address",
          "name": "account",
          "type": "address"
        }
      ],
      "name": "balanceOf",
      "outputs": [
        {
          "internalType": "uint256",
          "name": "",
          "type": "uint256"
        }
      ],
      "stateMutability": "view",
      "type": "function"
    },
    {
      "inputs": [],
      "name": "decimals",
      "outputs": [
        {
          "internalType": "uint8",
          "name": "",
          "type": "uint8"
        }
      ],
      "stateMutability": "view",
      "type": "function"
    },
    {
      "inputs": [
        {
          "internalType": "address",
          "name": "account",
          "type": "address"
        }
      ],
      "name": "getBalance",
      "outputs": [
        {
          "internalType": "uint256",
          "name": "",
          "type": "uint256"
        }
      ],
      "stateMutability": "view",
      "type": "function"
    },
    {
      "inputs": [
        {
          "internalType": "address",
          "name": "to",
          "type": "address"
        },
        {
          "internalType": "uint256",
          "name": "amount",
          "type": "uint256"
        }
      ],
      "name": "mint",
      "outputs": [],
      "stateMutability": "nonpayable",
      "type": "function"
    },
    {
      "inputs": [],
      "name": "name",
      "outputs": [
        {
          "internalType": "string",
          "name": "",
          "type": "string"
        }
      ],
      "stateMutability": "view",
      "type": "function"
    },
    {
      "inputs": [
        {
          "internalType": "address",
          "name": "postOwner",
          "type": "address"
        },
        {
          "internalType": "uint256",
          "name": "likeCount",
          "type": "uint256"
        }
      ],
      "name": "rewardForLikes",
      "outputs": [],
      "stateMutability": "nonpayable",
      "type": "function"
    },
    {
      "inputs": [],
      "name": "symbol",
      "outputs": [
        {
          "internalType": "string",
          "name": "",
          "type": "string"
        }
      ],
      "stateMutability": "view",
      "type": "function"
    },
    {
      "inputs": [],
      "name": "totalSupply",
      "outputs": [
        {
          "internalType": "uint256",
          "name": "",
          "type": "uint256"
        }
      ],
      "stateMutability": "view",
      "type": "function"
    },
    {
      "inputs": [
        {
          "internalType": "address",
          "name": "to",
          "type": "address"
        },
        {
          "internalType": "uint256",
          "name": "value",
          "type": "uint256"
        }
      ],
      "name": "transfer",
      "outputs": [
        {
          "internalType": "bool",
          "name": "",
          "type": "bool"
        }
      ],
      "stateMutability": "nonpayable",
      "type": "function"
    },
    {
      "inputs": [
        {
          "internalType": "address",
          "name": "from",
          "type": "address"
        },
        {
          "internalType": "address",
          "name": "to",
          "type": "address"
        },
        {
          "internalType": "uint256",
          "name": "value",
          "type": "uint256"
        }
      ],
      "name": "transferFrom",
      "outputs": [
        {
          "internalType": "bool",
          "name": "",
          "type": "bool"
        }
      ],
      "stateMutability": "nonpayable",
      "type": "function"
    }
  ],
  "bytecode": "0x608060405234801561001057600080fd5b506040518060400160405280600a81526020017f507572706c65436f696e000000000000000000000000000000000000000000008152506040518060400160405280600481526020017f5055525000000000000000000000000000000000000000000000000000000000815250816003908161008c91906105e0565b50806004908161009c91906105e0565b5050506100d5336100b16100da60201b60201c565b600a6100bd9190610821565b6103e86100ca919061086c565b6100e360201b60201c565b61099f565b60006012905090565b600073ffffffffffffffffffffffffffffffffffffffff168273ffffffffffffffffffffffffffffffffffffffff16036101555760006040517fec442f0500000000000000000000000000000000000000000000000000000000815260040161014c91906108ef565b60405180910390fd5b6101676000838361016b60201b60201c565b5050565b600073ffffffffffffffffffffffffffffffffffffffff168373ffffffffffffffffffffffffffffffffffffffff16036101bd5780600260008282546101b1919061090a565b92505081905550610290565b60008060008573ffffffffffffffffffffffffffffffffffffffff1673ffffffffffffffffffffffffffffffffffffffff16815260200190815260200160002054905081811015610249578381836040517fe450d38c0000000000000000000000000000000000000000000000000000000081526004016102409392919061094d565b60405180910390fd5b8181036000808673ffffffffffffffffffffffffffffffffffffffff1673ffffffffffffffffffffffffffffffffffffffff16815260200190815260200160002081905550505b600073ffffffffffffffffffffffffffffffffffffffff168273ffffffffffffffffffffffffffffffffffffffff16036102d95780600260008282540392505081905550610326565b806000808473ffffffffffffffffffffffffffffffffffffffff1673ffffffffffffffffffffffffffffffffffffffff168152602001908152602001600020600082825401925050819055505b8173ffffffffffffffffffffffffffffffffffffffff168373ffffffffffffffffffffffffffffffffffffffff167fddf252ad1be2c89b69c2b068fc378daa952ba7f163c4a11628f55a4df523b3ef836040516103839190610984565b60405180910390a3505050565b600081519050919050565b7f4e487b7100000000000000000000000000000000000000000000000000000000600052604160045260246000fd5b7f4e487b7100000000000000000000000000000000000000000000000000000000600052602260045260246000fd5b6000600282049050600182168061041157607f821691505b602082108103610424576104236103ca565b5b50919050565b60008190508160005260206000209050919050565b60006020601f8301049050919050565b600082821b905092915050565b60006008830261048c7fffffffffffffffffffffffffffffffffffffffffffffffffffffffffffffffff8261044f565b610496868361044f565b95508019841693508086168417925050509392505050565b6000819050919050565b6000819050919050565b60006104dd6104d86104d3846104ae565b6104b8565b6104ae565b9050919050565b6000819050919050565b6104f7836104c2565b61050b610503826104e4565b84845461045c565b825550505050565b600090565b610520610513565b61052b8184846104ee565b505050565b5b8181101561054f57610544600082610518565b600181019050610531565b5050565b601f821115610594576105658161042a565b61056e8461043f565b8101602085101561057d578190505b6105916105898561043f565b830182610530565b50505b505050565b600082821c905092915050565b60006105b760001984600802610599565b1980831691505092915050565b60006105d083836105a6565b9150826002028217905092915050565b6105e982610390565b67ffffffffffffffff8111156106025761060161039b565b5b61060c82546103f9565b610617828285610553565b600060209050601f83116001811461064a5760008415610638578287015190505b61064285826105c4565b8655506106aa565b601f1984166106588661042a565b60005b828110156106805784890151825560018201915060208501945060208101905061065b565b8683101561069d5784890151610699601f8916826105a6565b8355505b6001600288020188555050505b505050505050565b7f4e487b7100000000000000000000000000000000000000000000000000000000600052601160045260246000fd5b60008160011c9050919050565b6000808291508390505b600185111561073857808604811115610714576107136106b2565b5b60018516156107235780820291505b8081029050610731856106e1565b94506106f8565b94509492505050565b600082610751576001905061080d565b8161075f576000905061080d565b8160018114610775576002811461077f576107ae565b600191505061080d565b60ff841115610791576107906106b2565b5b8360020a9150848211156107a8576107a76106b2565b5b5061080d565b5060208310610133831016604e8410600b84101617156107e35782820a9050838111156107de576107dd6106b2565b5b61080d565b6107f084848460016106ee565b92509050818404811115610807576108066106b2565b5b81810290505b9392505050565b600060ff82169050919050565b600061082c826104ae565b915061083783610814565b92506108647fffffffffffffffffffffffffffffffffffffffffffffffffffffffffffffffff8484610741565b905092915050565b6000610877826104ae565b9150610882836104ae565b9250828202610890816104ae565b915082820484148315176108a7576108a66106b2565b5b5092915050565b600073ffffffffffffffffffffffffffffffffffffffff82169050919050565b60006108d9826108ae565b9050919050565b6108e9816108ce565b82525050565b600060208201905061090460008301846108e0565b92915050565b6000610915826104ae565b9150610920836104ae565b9250828201905080821115610938576109376106b2565b5b92915050565b610947816104ae565b82525050565b600060608201905061096260008301866108e0565b61096f602083018561093e565b61097c604083018461093e565b949350505050565b6000602082019050610999600083018461093e565b92915050565b611176806109ae6000396000f3fe608060405234801561001057600080fd5b50600436106100b45760003560e01c806364315b231161007157806364315b231461018f57806370a08231146101ab57806395d89b41146101db578063a9059cbb146101f9578063dd62ed3e14610229578063f8b2cb4f14610259576100b4565b806306fdde03146100b9578063095ea7b3146100d757806318160ddd1461010757806323b872dd14610125578063313ce5671461015557806340c10f1914610173575b600080fd5b6100c1610289565b6040516100ce9190610c0a565b60405180910390f35b6100f160048036038101906100ec9190610cc5565b61031b565b6040516100fe9190610d20565b60405180910390f35b61010f61033e565b60405161011c9190610d4a565b60405180910390f35b61013f600480360381019061013a9190610d65565b610348565b60405161014c9190610d20565b60405180910390f35b61015d610377565b60405161016a9190610dd4565b60405180910390f35b61018d60048036038101906101889190610cc5565b610380565b005b6101a960048036038101906101a49190610cc5565b61038e565b005b6101c560048036038101906101c09190610def565b6103c4565b6040516101d29190610d4a565b60405180910390f35b6101e361040c565b6040516101f09190610c0a565b60405180910390f35b610213600480360381019061020e9190610cc5565b61049e565b6040516102209190610d20565b60405180910390f35b610243600480360381019061023e9190610e1c565b6104c1565b6040516102509190610d4a565b60405180910390f35b610273600480360381019061026e9190610def565b610548565b6040516102809190610d4a565b60405180910390f35b60606003805461029890610e8b565b80601f01602080910402602001604051908101604052809291908181526020018280546102c490610e8b565b80156103115780601f106102e657610100808354040283529160200191610311565b820191906000526020600020905b8154815290600101906020018083116102f457829003601f168201915b5050505050905090565b60008061032661055a565b9050610333818585610562565b600191505092915050565b6000600254905090565b60008061035361055a565b9050610360858285610574565b61036b858585610608565b60019150509392505050565b60006012905090565b61038a82826106fc565b5050565b600381036103c0576103bf826103a2610377565b600a6103ae919061101e565b60056103ba9190611069565b610380565b5b5050565b60008060008373ffffffffffffffffffffffffffffffffffffffff1673ffffffffffffffffffffffffffffffffffffffff168152602001908152602001600020549050919050565b60606004805461041b90610e8b565b80601f016020809104026020016040519081016040528092919081815260200182805461044790610e8b565b80156104945780601f1061046957610100808354040283529160200191610494565b820191906000526020600020905b81548152906001019060200180831161047757829003601f168201915b5050505050905090565b6000806104a961055a565b90506104b6818585610608565b600191505092915050565b6000600160008473ffffffffffffffffffffffffffffffffffffffff1673ffffffffffffffffffffffffffffffffffffffff16815260200190815260200160002060008373ffffffffffffffffffffffffffffffffffffffff1673ffffffffffffffffffffffffffffffffffffffff16815260200190815260200160002054905092915050565b6000610553826103c4565b9050919050565b600033905090565b61056f838383600161077e565b505050565b600061058084846104c1565b90507fffffffffffffffffffffffffffffffffffffffffffffffffffffffffffffffff811461060257818110156105f2578281836040517ffb8f41b20000000000000000000000000000000000000000000000000000000081526004016105e9939291906110ba565b60405180910390fd5b6106018484848403600061077e565b5b50505050565b600073ffffffffffffffffffffffffffffffffffffffff168373ffffffffffffffffffffffffffffffffffffffff160361067a5760006040517f96c6fd1e00000000000000000000000000000000000000000000000000000000815260040161067191906110f1565b60405180910390fd5b600073ffffffffffffffffffffffffffffffffffffffff168273ffffffffffffffffffffffffffffffffffffffff16036106ec5760006040517fec442f050000000000000000000000000000000000000000000000000000000081526004016106e391906110f1565b60405180910390fd5b6106f7838383610955565b505050565b600073ffffffffffffffffffffffffffffffffffffffff168273ffffffffffffffffffffffffffffffffffffffff160361076e5760006040517fec442f0500000000000000000000000000000000000000000000000000000000815260040161076591906110f1565b60405180910390fd5b61077a60008383610955565b5050565b600073ffffffffffffffffffffffffffffffffffffffff168473ffffffffffffffffffffffffffffffffffffffff16036107f05760006040517fe602df050000000000000000000000000000000000000000000000000000000081526004016107e791906110f1565b60405180910390fd5b600073ffffffffffffffffffffffffffffffffffffffff168373ffffffffffffffffffffffffffffffffffffffff16036108625760006040517f94280d6200000000000000000000000000000000000000000000000000000000815260040161085991906110f1565b60405180910390fd5b81600160008673ffffffffffffffffffffffffffffffffffffffff1673ffffffffffffffffffffffffffffffffffffffff16815260200190815260200160002060008573ffffffffffffffffffffffffffffffffffffffff1673ffffffffffffffffffffffffffffffffffffffff16815260200190815260200160002081905550801561094f578273ffffffffffffffffffffffffffffffffffffffff168473ffffffffffffffffffffffffffffffffffffffff167f8c5be1e5ebec7d5bd14f71427d1e84f3dd0314c0f7b2291e5b200ac8c7c3b925846040516109469190610d4a565b60405180910390a35b50505050565b600073ffffffffffffffffffffffffffffffffffffffff168373ffffffffffffffffffffffffffffffffffffffff16036109a757806002600082825461099b919061110c565b92505081905550610a7a565b60008060008573ffffffffffffffffffffffffffffffffffffffff1673ffffffffffffffffffffffffffffffffffffffff16815260200190815260200160002054905081811015610a33578381836040517fe450d38c000000000000000000000000000000000000000000000000000000008152600401610a2a939291906110ba565b60405180910390fd5b8181036000808673ffffffffffffffffffffffffffffffffffffffff1673ffffffffffffffffffffffffffffffffffffffff16815260200190815260200160002081905550505b600073ffffffffffffffffffffffffffffffffffffffff168273ffffffffffffffffffffffffffffffffffffffff1603610ac35780600260008282540392505081905550610b10565b806000808473ffffffffffffffffffffffffffffffffffffffff1673ffffffffffffffffffffffffffffffffffffffff168152602001908152602001600020600082825401925050819055505b8173ffffffffffffffffffffffffffffffffffffffff168373ffffffffffffffffffffffffffffffffffffffff167fddf252ad1be2c89b69c2b068fc378daa952ba7f163c4a11628f55a4df523b3ef83604051610b6d9190610d4a565b60405180910390a3505050565b600081519050919050565b600082825260208201905092915050565b60005b83811015610bb4578082015181840152602081019050610b99565b60008484015250505050565b6000601f19601f8301169050919050565b6000610bdc82610b7a565b610be68185610b85565b9350610bf6818560208601610b96565b610bff81610bc0565b840191505092915050565b60006020820190508181036000830152610c248184610bd1565b905092915050565b600080fd5b600073ffffffffffffffffffffffffffffffffffffffff82169050919050565b6000610c5c82610c31565b9050919050565b610c6c81610c51565b8114610c7757600080fd5b50565b600081359050610c8981610c63565b92915050565b6000819050919050565b610ca281610c8f565b8114610cad57600080fd5b50565b600081359050610cbf81610c99565b92915050565b60008060408385031215610cdc57610cdb610c2c565b5b6000610cea85828601610c7a565b9250506020610cfb85828601610cb0565b9150509250929050565b60008115159050919050565b610d1a81610d05565b82525050565b6000602082019050610d356000830184610d11565b92915050565b610d4481610c8f565b82525050565b6000602082019050610d5f6000830184610d3b565b92915050565b600080600060608486031215610d7e57610d7d610c2c565b5b6000610d8c86828701610c7a565b9350506020610d9d86828701610c7a565b9250506040610dae86828701610cb0565b9150509250925092565b600060ff82169050919050565b610dce81610db8565b82525050565b6000602082019050610de96000830184610dc5565b92915050565b600060208284031215610e0557610e04610c2c565b5b6000610e1384828501610c7a565b91505092915050565b60008060408385031215610e3357610e32610c2c565b5b6000610e4185828601610c7a565b9250506020610e5285828601610c7a565b9150509250929050565b7f4e487b7100000000000000000000000000000000000000000000000000000000600052602260045260246000fd5b60006002820490506001821680610ea357607f821691505b602082108103610eb657610eb5610e5c565b5b50919050565b7f4e487b7100000000000000000000000000000000000000000000000000000000600052601160045260246000fd5b60008160011c9050919050565b6000808291508390505b6001851115610f4257808604811115610f1e57610f1d610ebc565b5b6001851615610f2d5780820291505b8081029050610f3b85610eeb565b9450610f02565b94509492505050565b600082610f5b5760019050611017565b81610f695760009050611017565b8160018114610f7f5760028114610f8957610fb8565b6001915050611017565b60ff841115610f9b57610f9a610ebc565b5b8360020a915084821115610fb257610fb1610ebc565b5b50611017565b5060208310610133831016604e8410600b8410161715610fed5782820a905083811115610fe857610fe7610ebc565b5b611017565b610ffa8484846001610ef8565b9250905081840481111561101157611010610ebc565b5b81810290505b9392505050565b600061102982610c8f565b915061103483610db8565b92506110617fffffffffffffffffffffffffffffffffffffffffffffffffffffffffffffffff8484610f4b565b905092915050565b600061107482610c8f565b915061107f83610c8f565b925082820261108d81610c8f565b915082820484148315176110a4576110a3610ebc565b5b5092915050565b6110b481610c51565b82525050565b60006060820190506110cf60008301866110ab565b6110dc6020830185610d3b565b6110e96040830184610d3b565b949350505050565b600060208201905061110660008301846110ab565b92915050565b600061111782610c8f565b915061112283610c8f565b925082820190508082111561113a57611139610ebc565b5b9291505056fea264697066735822122084f12611f3aaadf2a417d0e3bf3ccf3a667d496760790c1a7f0f8540a3bc2d9b64736f6c634300081c0033",
  "linkReferences": {},
  "deployedLinkReferences": {}
}