{
  "_format": "hh-sol-artifact-1",
  "contractName": "utente",
  "sourceName": "contracts/utente.sol",
  "abi": [
    {
      "inputs": [
        {
          "internalType": "string",
          "name": "_name",
          "type": "string"
        }
      ],
      "name": "create_account",
      "outputs": [],
      "stateMutability": "nonpayable",
      "type": "function"
    },
    {
      "inputs": [],
      "name": "get_address",
      "outputs": [
        {
          "internalType": "address[]",
          "name": "",
          "type": "address[]"
        }
      ],
      "stateMutability": "view",
      "type": "function"
    },
    {
      "inputs": [],
      "name": "get_utente",
      "outputs": [
        {
          "internalType": "string[]",
          "name": "",
          "type": "string[]"
        }
      ],
      "stateMutability": "view",
      "type": "function"
    },
    {
      "inputs": [],
      "name": "get_utente_registrato",
      "outputs": [
        {
          "internalType": "bool",
          "name": "",
          "type": "bool"
        }
      ],
      "stateMutability": "view",
      "type": "function"
    }
  ],
  "bytecode": "0x6080604052348015600f57600080fd5b50610fec8061001f6000396000f3fe608060405234801561001057600080fd5b506004361061004c5760003560e01c80630131222f1461005157806336c72d7d1461006f578063a035e7ca1461008d578063d4a638a3146100ab575b600080fd5b6100596100c7565b6040516100669190610752565b60405180910390f35b610077610155565b60405161008491906108c6565b60405180910390f35b6100956102f9565b6040516100a29190610903565b60405180910390f35b6100c560048036038101906100c09190610a67565b61034d565b005b6060600280548060200260200160405190810160405280929190818152602001828054801561014b57602002820191906000526020600020905b8160009054906101000a900473ffffffffffffffffffffffffffffffffffffffff1673ffffffffffffffffffffffffffffffffffffffff1681526020019060010190808311610101575b5050505050905090565b6060600060028054905067ffffffffffffffff8111156101785761017761093c565b5b6040519080825280602002602001820160405280156101ab57816020015b60608152602001906001900390816101965790505b50905060005b6002805490508110156102f157600080600283815481106101d5576101d4610ab0565b5b9060005260206000200160009054906101000a900473ffffffffffffffffffffffffffffffffffffffff1673ffffffffffffffffffffffffffffffffffffffff1673ffffffffffffffffffffffffffffffffffffffff168152602001908152602001600020600101805461024890610b0e565b80601f016020809104026020016040519081016040528092919081815260200182805461027490610b0e565b80156102c15780601f10610296576101008083540402835291602001916102c1565b820191906000526020600020905b8154815290600101906020018083116102a457829003601f168201915b50505050508282815181106102d9576102d8610ab0565b5b602002602001018190525080806001019150506101b1565b819250505090565b6000600160003373ffffffffffffffffffffffffffffffffffffffff1673ffffffffffffffffffffffffffffffffffffffff16815260200190815260200160002060009054906101000a900460ff16905090565b600160003373ffffffffffffffffffffffffffffffffffffffff1673ffffffffffffffffffffffffffffffffffffffff16815260200190815260200160002060009054906101000a900460ff16156103da576040517f08c379a00000000000000000000000000000000000000000000000000000000081526004016103d190610bc2565b60405180910390fd5b8060005b6002805490508110156104d45781805190602001206000806002848154811061040a57610409610ab0565b5b9060005260206000200160009054906101000a900473ffffffffffffffffffffffffffffffffffffffff1673ffffffffffffffffffffffffffffffffffffffff1673ffffffffffffffffffffffffffffffffffffffff16815260200190815260200160002060010160405161047f9190610c85565b6040518091039020036104c7576040517f08c379a00000000000000000000000000000000000000000000000000000000081526004016104be90610d0e565b60405180910390fd5b80806001019150506103de565b600060405180604001604052803373ffffffffffffffffffffffffffffffffffffffff168152602001858152509050806000803373ffffffffffffffffffffffffffffffffffffffff1673ffffffffffffffffffffffffffffffffffffffff16815260200190815260200160002060008201518160000160006101000a81548173ffffffffffffffffffffffffffffffffffffffff021916908373ffffffffffffffffffffffffffffffffffffffff160217905550602082015181600101908161059e9190610ee4565b509050506002339080600181540180825580915050600190039060005260206000200160009091909190916101000a81548173ffffffffffffffffffffffffffffffffffffffff021916908373ffffffffffffffffffffffffffffffffffffffff16021790555060018060003373ffffffffffffffffffffffffffffffffffffffff1673ffffffffffffffffffffffffffffffffffffffff16815260200190815260200160002060006101000a81548160ff02191690831515021790555050505050565b600081519050919050565b600082825260208201905092915050565b6000819050602082019050919050565b600073ffffffffffffffffffffffffffffffffffffffff82169050919050565b60006106b98261068e565b9050919050565b6106c9816106ae565b82525050565b60006106db83836106c0565b60208301905092915050565b6000602082019050919050565b60006106ff82610662565b610709818561066d565b93506107148361067e565b8060005b8381101561074557815161072c88826106cf565b9750610737836106e7565b925050600181019050610718565b5085935050505092915050565b6000602082019050818103600083015261076c81846106f4565b905092915050565b600081519050919050565b600082825260208201905092915050565b6000819050602082019050919050565b600081519050919050565b600082825260208201905092915050565b60005b838110156107da5780820151818401526020810190506107bf565b60008484015250505050565b6000601f19601f8301169050919050565b6000610802826107a0565b61080c81856107ab565b935061081c8185602086016107bc565b610825816107e6565b840191505092915050565b600061083c83836107f7565b905092915050565b6000602082019050919050565b600061085c82610774565b610866818561077f565b93508360208202850161087885610790565b8060005b858110156108b457848403895281516108958582610830565b94506108a083610844565b925060208a0199505060018101905061087c565b50829750879550505050505092915050565b600060208201905081810360008301526108e08184610851565b905092915050565b60008115159050919050565b6108fd816108e8565b82525050565b600060208201905061091860008301846108f4565b92915050565b6000604051905090565b600080fd5b600080fd5b600080fd5b600080fd5b7f4e487b7100000000000000000000000000000000000000000000000000000000600052604160045260246000fd5b610974826107e6565b810181811067ffffffffffffffff821117156109935761099261093c565b5b80604052505050565b60006109a661091e565b90506109b2828261096b565b919050565b600067ffffffffffffffff8211156109d2576109d161093c565b5b6109db826107e6565b9050602081019050919050565b82818337600083830152505050565b6000610a0a610a05846109b7565b61099c565b905082815260208101848484011115610a2657610a25610937565b5b610a318482856109e8565b509392505050565b600082601f830112610a4e57610a4d610932565b5b8135610a5e8482602086016109f7565b91505092915050565b600060208284031215610a7d57610a7c610928565b5b600082013567ffffffffffffffff811115610a9b57610a9a61092d565b5b610aa784828501610a39565b91505092915050565b7f4e487b7100000000000000000000000000000000000000000000000000000000600052603260045260246000fd5b7f4e487b7100000000000000000000000000000000000000000000000000000000600052602260045260246000fd5b60006002820490506001821680610b2657607f821691505b602082108103610b3957610b38610adf565b5b50919050565b600082825260208201905092915050565b7f4c276163636f756e74206573697374652c20656666657474756120696c206c6f60008201527f67696e203a280000000000000000000000000000000000000000000000000000602082015250565b6000610bac602683610b3f565b9150610bb782610b50565b604082019050919050565b60006020820190508181036000830152610bdb81610b9f565b9050919050565b600081905092915050565b60008190508160005260206000209050919050565b60008154610c0f81610b0e565b610c198186610be2565b94506001821660008114610c345760018114610c4957610c7c565b60ff1983168652811515820286019350610c7c565b610c5285610bed565b60005b83811015610c7457815481890152600182019150602081019050610c55565b838801955050505b50505092915050565b6000610c918284610c02565b915081905092915050565b7f4d692064697370696163652c206e69636b5f6e616d65206573697374656e746560008201527f203a280000000000000000000000000000000000000000000000000000000000602082015250565b6000610cf8602383610b3f565b9150610d0382610c9c565b604082019050919050565b60006020820190508181036000830152610d2781610ceb565b9050919050565b60008190508160005260206000209050919050565b60006020601f8301049050919050565b600082821b905092915050565b600060088302610d907fffffffffffffffffffffffffffffffffffffffffffffffffffffffffffffffff82610d53565b610d9a8683610d53565b95508019841693508086168417925050509392505050565b6000819050919050565b6000819050919050565b6000610de1610ddc610dd784610db2565b610dbc565b610db2565b9050919050565b6000819050919050565b610dfb83610dc6565b610e0f610e0782610de8565b848454610d60565b825550505050565b600090565b610e24610e17565b610e2f818484610df2565b505050565b5b81811015610e5357610e48600082610e1c565b600181019050610e35565b5050565b601f821115610e9857610e6981610d2e565b610e7284610d43565b81016020851015610e81578190505b610e95610e8d85610d43565b830182610e34565b50505b505050565b600082821c905092915050565b6000610ebb60001984600802610e9d565b1980831691505092915050565b6000610ed48383610eaa565b9150826002028217905092915050565b610eed826107a0565b67ffffffffffffffff811115610f0657610f0561093c565b5b610f108254610b0e565b610f1b828285610e57565b600060209050601f831160018114610f4e5760008415610f3c578287015190505b610f468582610ec8565b865550610fae565b601f198416610f5c86610d2e565b60005b82811015610f8457848901518255600182019150602085019450602081019050610f5f565b86831015610fa15784890151610f9d601f891682610eaa565b8355505b6001600288020188555050505b50505050505056fea2646970667358221220b29fc7f90f8750610ddeb152f060efccb93749a5ceb35b2ed4b3f955b7f71fe464736f6c634300081c0033",
  "linkReferences": {},
  "deployedLinkReferences": {}
}